{
  "abi": [
    {
      "inputs": [
        {
          "internalType": "contract ISuperfluid",
          "name": "host",
          "type": "address"
        }
      ],
      "stateMutability": "nonpayable",
      "type": "constructor"
    },
    {
      "inputs": [],
      "name": "AGREEMENT_BASE_ONLY_HOST",
      "type": "error"
    },
    {
      "inputs": [],
      "name": "NOT_POOL_ADMIN",
      "type": "error"
    },
    {
      "inputs": [],
      "name": "NO_NEGATIVE_UNITS",
      "type": "error"
    },
    {
      "inputs": [],
      "name": "ONLY_SUPER_TOKEN_POOL",
      "type": "error"
    },
    {
      "anonymous": false,
      "inputs": [
        {
          "indexed": false,
          "internalType": "bytes32",
          "name": "uuid",
          "type": "bytes32"
        },
        {
          "indexed": false,
          "internalType": "address",
          "name": "codeAddress",
          "type": "address"
        }
      ],
      "name": "CodeUpdated",
      "type": "event"
    },
    {
      "anonymous": false,
      "inputs": [
        {
          "indexed": true,
          "internalType": "contract ISuperfluidToken",
          "name": "token",
          "type": "address"
        },
        {
          "indexed": true,
          "internalType": "contract ISuperTokenPool",
          "name": "pool",
          "type": "address"
        },
        {
          "indexed": true,
          "internalType": "address",
          "name": "distributor",
          "type": "address"
        },
        {
          "indexed": false,
          "internalType": "uint32",
          "name": "distributedAt",
          "type": "uint32"
        },
        {
          "indexed": false,
          "internalType": "int96",
          "name": "oldFlowRate",
          "type": "int96"
        },
        {
          "indexed": false,
          "internalType": "int96",
          "name": "newFlowRate",
          "type": "int96"
        }
      ],
      "name": "DistributionFlowUpdated",
      "type": "event"
    },
    {
      "anonymous": false,
      "inputs": [
        {
          "indexed": false,
          "internalType": "uint8",
          "name": "version",
          "type": "uint8"
        }
      ],
      "name": "Initialized",
      "type": "event"
    },
    {
      "anonymous": false,
      "inputs": [
        {
          "indexed": true,
          "internalType": "contract ISuperfluidToken",
          "name": "token",
          "type": "address"
        },
        {
          "indexed": true,
          "internalType": "address",
          "name": "account",
          "type": "address"
        },
        {
          "indexed": true,
          "internalType": "contract ISuperTokenPool",
          "name": "pool",
          "type": "address"
        },
        {
          "indexed": false,
          "internalType": "bool",
          "name": "connected",
          "type": "bool"
        }
      ],
      "name": "PoolConnectionUpdated",
      "type": "event"
    },
    {
      "anonymous": false,
      "inputs": [
        {
          "indexed": true,
          "internalType": "contract ISuperfluidToken",
          "name": "token",
          "type": "address"
        },
        {
          "indexed": true,
          "internalType": "address",
          "name": "admin",
          "type": "address"
        },
        {
          "indexed": false,
          "internalType": "contract ISuperTokenPool",
          "name": "pool",
          "type": "address"
        }
      ],
      "name": "PoolCreated",
      "type": "event"
    },
    {
      "anonymous": false,
      "inputs": [
        {
          "indexed": true,
          "internalType": "contract ISuperfluidToken",
          "name": "token",
          "type": "address"
        },
        {
          "indexed": true,
          "internalType": "address",
          "name": "account",
          "type": "address"
        },
        {
          "indexed": false,
          "internalType": "uint32",
          "name": "settledAt",
          "type": "uint32"
        },
        {
          "indexed": false,
          "internalType": "int256",
          "name": "settledValue",
          "type": "int256"
        },
        {
          "indexed": false,
          "internalType": "int96",
          "name": "flowRate",
          "type": "int96"
        }
      ],
      "name": "UniversalIndexUpdated",
      "type": "event"
    },
    {
      "inputs": [
        {
          "internalType": "contract ISuperfluidToken",
          "name": "token",
          "type": "address"
        },
        {
          "internalType": "address[]",
          "name": "accounts",
          "type": "address[]"
        },
        {
          "components": [
            {
              "internalType": "Time",
              "name": "settled_at",
              "type": "uint32"
            },
            {
              "internalType": "Value",
              "name": "settled_value",
              "type": "int256"
            },
            {
              "internalType": "FlowRate",
              "name": "flow_rate",
              "type": "int128"
            }
          ],
          "internalType": "struct BasicParticle[]",
          "name": "ps",
          "type": "tuple[]"
        }
      ],
      "name": "absorbParticlesFromPool",
      "outputs": [
        {
          "internalType": "bool",
          "name": "",
          "type": "bool"
        }
      ],
      "stateMutability": "nonpayable",
      "type": "function"
    },
    {
      "inputs": [],
      "name": "agreementType",
      "outputs": [
        {
          "internalType": "bytes32",
          "name": "",
          "type": "bytes32"
        }
      ],
      "stateMutability": "pure",
      "type": "function"
    },
    {
      "inputs": [],
      "name": "castrate",
      "outputs": [],
      "stateMutability": "nonpayable",
      "type": "function"
    },
    {
      "inputs": [
        {
          "internalType": "contract ISuperTokenPool",
          "name": "pool",
          "type": "address"
        },
        {
          "internalType": "bool",
          "name": "doConnect",
          "type": "bool"
        },
        {
          "internalType": "bytes",
          "name": "ctx",
          "type": "bytes"
        }
      ],
      "name": "connectPool",
      "outputs": [
        {
          "internalType": "bytes",
          "name": "newCtx",
          "type": "bytes"
        }
      ],
      "stateMutability": "nonpayable",
      "type": "function"
    },
    {
      "inputs": [
        {
          "internalType": "contract ISuperTokenPool",
          "name": "pool",
          "type": "address"
        },
        {
          "internalType": "bytes",
          "name": "ctx",
          "type": "bytes"
        }
      ],
      "name": "connectPool",
      "outputs": [
        {
          "internalType": "bytes",
          "name": "newCtx",
          "type": "bytes"
        }
      ],
      "stateMutability": "nonpayable",
      "type": "function"
    },
    {
      "inputs": [
        {
          "internalType": "address",
          "name": "admin",
          "type": "address"
        },
        {
          "internalType": "contract ISuperfluidToken",
          "name": "token",
          "type": "address"
        }
      ],
      "name": "createPool",
      "outputs": [
        {
          "internalType": "contract ISuperTokenPool",
          "name": "pool",
          "type": "address"
        }
      ],
      "stateMutability": "nonpayable",
      "type": "function"
    },
    {
      "inputs": [
        {
          "internalType": "contract ISuperTokenPool",
          "name": "pool",
          "type": "address"
        },
        {
          "internalType": "bytes",
          "name": "ctx",
          "type": "bytes"
        }
      ],
      "name": "disconnectPool",
      "outputs": [
        {
          "internalType": "bytes",
          "name": "newCtx",
          "type": "bytes"
        }
      ],
      "stateMutability": "nonpayable",
      "type": "function"
    },
    {
      "inputs": [
        {
          "internalType": "contract ISuperfluidToken",
          "name": "token",
          "type": "address"
        },
        {
          "internalType": "contract ISuperTokenPool",
          "name": "pool",
          "type": "address"
        },
        {
          "internalType": "uint256",
          "name": "requestedAmount",
          "type": "uint256"
        },
        {
          "internalType": "bytes",
          "name": "ctx",
          "type": "bytes"
        }
      ],
      "name": "distribute",
      "outputs": [
        {
          "internalType": "bytes",
          "name": "newCtx",
          "type": "bytes"
        }
      ],
      "stateMutability": "nonpayable",
      "type": "function"
    },
    {
      "inputs": [
        {
          "internalType": "contract ISuperfluidToken",
          "name": "token",
          "type": "address"
        },
        {
          "internalType": "contract ISuperTokenPool",
          "name": "to",
          "type": "address"
        },
        {
          "internalType": "int96",
          "name": "requestedFlowRate",
          "type": "int96"
        },
        {
          "internalType": "bytes",
          "name": "ctx",
          "type": "bytes"
        }
      ],
      "name": "distributeFlow",
      "outputs": [
        {
          "internalType": "bytes",
          "name": "newCtx",
          "type": "bytes"
        }
      ],
      "stateMutability": "nonpayable",
      "type": "function"
    },
    {
      "inputs": [
        {
          "internalType": "bytes32",
          "name": "flowAddress",
          "type": "bytes32"
        }
      ],
      "name": "flowRates",
      "outputs": [
        {
          "internalType": "FlowRate",
          "name": "flowRate",
          "type": "int128"
        }
      ],
      "stateMutability": "view",
      "type": "function"
    },
    {
      "inputs": [],
      "name": "getCodeAddress",
      "outputs": [
        {
          "internalType": "address",
          "name": "codeAddress",
          "type": "address"
        }
      ],
      "stateMutability": "view",
      "type": "function"
    },
    {
      "inputs": [
        {
          "internalType": "contract ISuperfluidToken",
          "name": "token",
          "type": "address"
        },
        {
          "internalType": "address",
          "name": "from",
          "type": "address"
        },
        {
          "internalType": "contract ISuperTokenPool",
          "name": "to",
          "type": "address"
        },
        {
          "internalType": "int96",
          "name": "requestedFlowRate",
          "type": "int96"
        }
      ],
      "name": "getFlowDistributionActualFlowRate",
      "outputs": [
        {
          "internalType": "int96",
          "name": "finalFlowRate",
          "type": "int96"
        }
      ],
      "stateMutability": "view",
      "type": "function"
    },
    {
      "inputs": [
        {
          "internalType": "address",
          "name": "from",
          "type": "address"
        },
        {
          "internalType": "address",
          "name": "to",
          "type": "address"
        }
      ],
      "name": "getFlowRate",
      "outputs": [
        {
          "internalType": "int96",
          "name": "",
          "type": "int96"
        }
      ],
      "stateMutability": "view",
      "type": "function"
    },
    {
      "inputs": [
        {
          "internalType": "contract ISuperfluidToken",
          "name": "token",
          "type": "address"
        },
        {
          "internalType": "address",
          "name": "account",
          "type": "address"
        }
      ],
      "name": "getNetFlowRate",
      "outputs": [
        {
          "internalType": "int96",
          "name": "netFlowRate",
          "type": "int96"
        }
      ],
      "stateMutability": "view",
      "type": "function"
    },
    {
      "inputs": [
        {
          "internalType": "address",
          "name": "pool",
          "type": "address"
        },
        {
          "internalType": "address",
          "name": "member",
          "type": "address"
        }
      ],
      "name": "isMemberConnected",
      "outputs": [
        {
          "internalType": "bool",
          "name": "",
          "type": "bool"
        }
      ],
      "stateMutability": "view",
      "type": "function"
    },
    {
      "inputs": [
        {
          "internalType": "contract ISuperTokenPool",
          "name": "pool",
          "type": "address"
        }
      ],
      "name": "pools",
      "outputs": [
        {
          "internalType": "bool",
          "name": "exists",
          "type": "bool"
        }
      ],
      "stateMutability": "view",
      "type": "function"
    },
    {
      "inputs": [],
      "name": "proxiableUUID",
      "outputs": [
        {
          "internalType": "bytes32",
          "name": "",
          "type": "bytes32"
        }
      ],
      "stateMutability": "view",
      "type": "function"
    },
    {
      "inputs": [
        {
          "internalType": "contract ISuperfluidToken",
          "name": "token",
          "type": "address"
        },
        {
          "internalType": "address",
          "name": "account",
          "type": "address"
        },
        {
          "internalType": "uint256",
          "name": "time",
          "type": "uint256"
        }
      ],
      "name": "realtimeBalanceOf",
      "outputs": [
        {
          "internalType": "int256",
          "name": "rtb",
          "type": "int256"
        },
        {
          "internalType": "uint256",
          "name": "dep",
          "type": "uint256"
        },
        {
          "internalType": "uint256",
          "name": "owedDeposit",
          "type": "uint256"
        }
      ],
      "stateMutability": "view",
      "type": "function"
    },
    {
      "inputs": [
        {
          "internalType": "contract ISuperfluidToken",
          "name": "token",
          "type": "address"
        },
        {
          "internalType": "address",
          "name": "account",
          "type": "address"
        }
      ],
      "name": "realtimeBalanceOfNow",
      "outputs": [
        {
          "internalType": "int256",
          "name": "rtb",
          "type": "int256"
        }
      ],
      "stateMutability": "view",
      "type": "function"
    },
    {
      "inputs": [
        {
          "internalType": "contract ISuperfluidToken",
          "name": "token",
          "type": "address"
        },
        {
          "internalType": "address",
          "name": "account",
          "type": "address"
        },
        {
          "internalType": "uint256",
          "name": "time",
          "type": "uint256"
        }
      ],
      "name": "realtimeBalanceVectorAt",
      "outputs": [
        {
          "internalType": "int256",
          "name": "available",
          "type": "int256"
        },
        {
          "internalType": "int256",
          "name": "deposit",
          "type": "int256"
        }
      ],
      "stateMutability": "view",
      "type": "function"
    },
    {
      "inputs": [
        {
          "internalType": "address",
          "name": "newAddress",
          "type": "address"
        }
      ],
      "name": "updateCode",
      "outputs": [],
      "stateMutability": "nonpayable",
      "type": "function"
    }
  ],
  "bytecode": {
    "object": "0x60a06040523480156200001157600080fd5b5060405162002f1138038062002f11833981016040819052620000349162000046565b6001600160a01b031660805262000078565b6000602082840312156200005957600080fd5b81516001600160a01b03811681146200007157600080fd5b9392505050565b608051612e7d6200009460003960006108450152612e7d6000f3fe608060405234801561001057600080fd5b50600436106101375760003560e01c80639903ad38116100b8578063bc71d3481161007c578063bc71d3481461030f578063c782eb9c14610322578063c942688414610335578063cc76e87b14610348578063e34336151461035b578063f0b7b9151461036e57600080fd5b80639903ad381461025d5780639b2e48bc14610265578063a4063dbc14610293578063aedda13a146102c6578063b0bd081f146102fc57600080fd5b806352d1902d116100ff57806352d1902d146101d55780635cfd50d7146101eb5780637730599e146101fe57806384621bb7146102245780638a2c8d5e1461023757600080fd5b806310dc87921461013c57806330925b7914610165578063438c7b271461017857806346951954146101a057806350d75d25146101b5575b600080fd5b61014f61014a366004612333565b610381565b60405161015c91906123bb565b60405180910390f35b61014f6101733660046123ee565b610689565b61018b610186366004612442565b6106a0565b6040805192835260208301919091520161015c565b6101b36101ae366004612483565b61083a565b005b6101bd61088f565b6040516001600160a01b03909116815260200161015c565b6101dd6108be565b60405190815260200161015c565b6101dd6101f93660046124a7565b610922565b7fdfd8ece9bfbcb8c5c540edb935641f63d67686490a1ab97f000288759f30a9466101dd565b61014f6102323660046124e0565b610939565b61024a610245366004612561565b610b1e565b604051600b9190910b815260200161015c565b6101b3610b94565b610278610273366004612442565b610ca2565b6040805193845260208401929092529082015260600161015c565b6102b66102a1366004612483565b60036020526000908152604090205460ff1681565b604051901515815260200161015c565b6102e96102d43660046125bd565b600260205260009081526040902054600f0b81565b604051600f9190910b815260200161015c565b6102b661030a36600461261a565b610cd4565b61014f61031d3660046126bc565b610ddc565b6102b66103303660046124a7565b610fe6565b61024a6103433660046124a7565b611011565b61024a6103563660046124a7565b61103c565b6101bd6103693660046124a7565b6111b7565b61014f61037c3660046123ee565b6112ad565b60606000856001600160a01b031663c8b53aef6040518163ffffffff1660e01b8152600401602060405180830381865afa1580156103c3573d6000803e3d6000fd5b505050506040513d601f19601f820116820180604052508101906103e7919061272a565b9050600061042b8286868080601f0160208091040260200160405190810160405280939291908181526020018383808284376000920191909152506112bc92505050565b905060008160600151905085858080601f01602080910402602001604051908101604052809392919081815260200183838082843760009201919091525092965050881591506105509050576001600160a01b038116600090815260016020526040902061049990896114d0565b61054b576001600160a01b03811660009081526001602052604090206104bf90896114f2565b50604051637e27584960e01b815263ffffffff421660048201526001600160a01b03828116602483015260016044830152891690637e275849906064016020604051808303816000875af115801561051b573d6000803e3d6000fd5b505050506040513d601f19601f8201168201806040525081019061053f9190612747565b61054b5761054b612764565b610625565b6001600160a01b038116600090815260016020526040902061057290896114d0565b15610625576001600160a01b03811660009081526001602052604090206105999089611507565b50604051637e27584960e01b815263ffffffff421660048201526001600160a01b03828116602483015260006044830152891690637e275849906064016020604051808303816000875af11580156105f5573d6000803e3d6000fd5b505050506040513d601f19601f820116820180604052508101906106199190612747565b61062557610625612764565b876001600160a01b0316816001600160a01b0316846001600160a01b03167f66d764abd95d5bf05c4aaf1cf2c22ed6ce3d992094b5f0ce3713c221284f51198a604051610676911515815260200190565b60405180910390a4505050949350505050565b60606106988460008585610381565b949350505050565b60008060006106b7866106b28761151c565b611579565b91506106c59050818561162a565b92506106e9856001600160a01b031660009081526003602052604090205460ff1690565b1561075d57846001600160a01b0316630134aeba6040518163ffffffff1660e01b8152600401602060405180830381865afa15801561072c573d6000803e3d6000fd5b505050506040513d601f19601f82011682018060405250810190610750919061277a565b61075a90846127a9565b92505b6001600160a01b0385166000908152600160205260408120905b61078082611658565b81101561082b5760006107938383611662565b60405163360e82c160e11b815263ffffffff891660048201526001600160a01b038a8116602483015291925090821690636c1d058290604401602060405180830381865afa1580156107e9573d6000803e3d6000fd5b505050506040513d601f19601f8201168201806040525081019061080d919061277a565b61081790876127a9565b95505080610824906127d1565b9050610777565b50506000915050935093915050565b336001600160a01b037f0000000000000000000000000000000000000000000000000000000000000000161461088357604051630b00ec8f60e11b815260040160405180910390fd5b61088c8161166e565b50565b60006108b97f360894a13ba1a3210667c828492db98dca3e2076cc3735a920a3ca505d382bbc5490565b905090565b6000306001600160a01b0316637730599e6040518163ffffffff1660e01b8152600401602060405180830381865afa1580156108fe573d6000803e3d6000fd5b505050506040513d601f19601f820116820180604052508101906108b9919061277a565b600061092f838342610ca2565b5090949350505050565b6060600061097d8785858080601f0160208091040260200160405190810160405280939291908181526020018383808284376000920191909152506112bc92505050565b905083838080601f0160208091040260200160405190810160405280939291908181526020018383808284376000920182905250604080516381045ead60e01b815290519597508b959194506001600160a01b03861693506381045ead92506004808201926080929091908290030181865afa158015610a01573d6000803e3d6000fd5b505050506040513d601f19601f82011682018060405250810190610a25919061289c565b90506000610a36846060015161151c565b90506000610a448b83611579565b9150610a53905081848b611876565b508094508192505050610a6b8b866060015183611927565b60408051631da5d3cd60e31b81528451600f90810b6004830152602080870151805163ffffffff1660248501529081015160448401529092015190910b60648201526001600160a01b0385169063ed2e9e68906084016020604051808303816000875af1158015610ae0573d6000803e3d6000fd5b505050506040513d601f19601f82011682018060405250810190610b049190612747565b610b1057610b10612764565b505050505095945050505050565b60004281610b2c8686611a19565b90506000610b3d886106b28961151c565b9150506000610b4b87611a88565b9050600080610b7588600b0b610b7087600090815260026020526040902054600f0b90565b611af2565b9050610b8384848389611afe565b9d9c50505050505050505050505050565b600054610100900460ff1615808015610bb45750600054600160ff909116105b80610bce5750303b158015610bce575060005460ff166001145b610c365760405162461bcd60e51b815260206004820152602e60248201527f496e697469616c697a61626c653a20636f6e747261637420697320616c72656160448201526d191e481a5b9a5d1a585b1a5e995960921b60648201526084015b60405180910390fd5b6000805460ff191660011790558015610c59576000805461ff0019166101001790555b801561088c576000805461ff0019169055604051600181527f7f26b83ff96e1f2b6a682f133852f6798a09c465da95921460cefb3847402498906020015b60405180910390a150565b6000806000806000610cb58888886106a0565b9092509050610cc48183612939565b9890975060009650945050505050565b3360009081526003602052604081205460ff1615158103610d085760405163845653ad60e01b815260040160405180910390fd5b838214610d1757610d17612764565b60005b84811015610dcf576000610d57886106b2898986818110610d3d57610d3d612959565b9050602002016020810190610d529190612483565b61151c565b915050610dbc88888885818110610d7057610d70612959565b9050602002016020810190610d859190612483565b610db7888887818110610d9a57610d9a612959565b905060600201803603810190610db0919061296f565b8590611bee565b611927565b5080610dc7816127d1565b915050610d1a565b5060019695505050505050565b60606000610e208785858080601f0160208091040260200160405190810160405280939291908181526020018383808284376000920191909152506112bc92505050565b905083838080601f016020809104026020016040519081016040528093929190818152602001838380828437600092018290525060608601519496504294909350610e6e9250905089611a19565b90506000610e838a6106b2866060015161151c565b9150506000610e988260400151600f0b611c91565b90506000610ea58b611a88565b9050600080610eca8c600b0b610b7088600090815260026020526040902054600f0b90565b9050610ed88584838a611afe565b60608b01519297509094509250610ef1908f9087611927565b610efb8d84611c9c565b600086815260026020526040902080546fffffffffffffffffffffffffffffffff19166fffffffffffffffffffffffffffffffff841617905587606001516001600160a01b03168d6001600160a01b03168f6001600160a01b03167fedef521a317ddc9d8808f084a1c60d4d80579415b92038797d6f6f25f0d735db4288610fac610fa6600260008f815260200190815260200160002060009054906101000a9004600f0b8a611d45565b8b611af2565b6040805163ffffffff9094168452600b92830b6020850152910b9082015260600160405180910390a4505050505050505095945050505050565b6001600160a01b038116600090815260016020526040812061100890846114d0565b90505b92915050565b6000600260006110218585611a19565b8152602081019190915260400160002054600f0b9392505050565b60008061104c846106b28561151c565b91505080604001519150611078836001600160a01b031660009081526003602052604090205460ff1690565b156110ec57826001600160a01b031663b68ef98a6040518163ffffffff1660e01b8152600401602060405180830381865afa1580156110bb573d6000803e3d6000fd5b505050506040513d601f19601f820116820180604052508101906110df91906129ba565b6110e990836129d7565b91505b6001600160a01b0383166000908152600160205260408120905b61110f82611658565b8110156111ae5760006111228383611662565b6040516314e7a30760e21b81526001600160a01b0388811660048301529192509082169063539e8c1c90602401602060405180830381865afa15801561116c573d6000803e3d6000fd5b505050506040513d601f19601f8201168201806040525081019061119091906129ba565b61119a90866129d7565b945050806111a7906127d1565b9050611106565b50505092915050565b604051633ac25c0960e21b81526001600160a01b0380841660048301523060248301528216604482015260009073__$659b7cc33d48406b12c5d318686f86d453$__9063eb09702490606401602060405180830381865af4158015611220573d6000803e3d6000fd5b505050506040513d601f19601f82011682018060405250810190611244919061272a565b6001600160a01b03818116600081815260036020908152604091829020805460ff19166001179055905191825292935085821692918516917f9c5d829b9b23efc461f9aeef91979ec04bb903feb3bee4f26d22114abfc7335b910160405180910390a392915050565b60606106988460018585610381565b604080516101608101825260008082526020820181905291810182905260608082018390526080820183905260a082015260c0810182905260e0810182905261010081018290526101208101829052610140810191909152336001600160a01b0316836001600160a01b03166320bc44256040518163ffffffff1660e01b8152600401602060405180830381865afa15801561135c573d6000803e3d6000fd5b505050506040513d601f19601f82011682018060405250810190611380919061272a565b6001600160a01b0316146113ca5760405162461bcd60e51b81526020600482015260116024820152701d5b985d5d1a1bdc9a5e9959081a1bdcdd607a1b6044820152606401610c2d565b604051632fd0a1cd60e21b8152339063bf428734906113ed9085906004016123bb565b602060405180830381865afa15801561140a573d6000803e3d6000fd5b505050506040513d601f19601f8201168201806040525081019061142e9190612747565b6114685760405162461bcd60e51b815260206004820152600b60248201526a0d2dcecc2d8d2c840c6e8f60ab1b6044820152606401610c2d565b604051631fb6491d60e11b81523390633f6c923a9061148b9085906004016123bb565b600060405180830381865afa1580156114a8573d6000803e3d6000fd5b505050506040513d6000823e601f3d908101601f191682016040526110089190810190612a9a565b6001600160a01b03811660009081526001830160205260408120541515611008565b6000611008836001600160a01b038416611d51565b6000611008836001600160a01b038416611da0565b6040805160208101829052600e60608201526d0eadcd2eccae4e6c2d892dcc8caf60931b60808201526001600160a01b0383169181019190915260009060a001604051602081830303815290604052805190602001209050919050565b60408051606081018252600080825260208201819052918101829052604051636c2d9f2f60e01b815230600482015260248101849052600260448201526000906001600160a01b03861690636c2d9f2f90606401600060405180830381865afa1580156115ea573d6000803e3d6000fd5b505050506040513d6000823e601f3d908101601f191682016040526116129190810190612ba0565b905061161d81611e9a565b92509250505b9250929050565b600061100861164e611640848660000151611f3c565b6040860151600f0b90611f48565b8460200151611f5e565b600061100b825490565b60006110088383611f6a565b60006116987f360894a13ba1a3210667c828492db98dca3e2076cc3735a920a3ca505d382bbc5490565b6001600160a01b0316036116ee5760405162461bcd60e51b815260206004820152601d60248201527f5555505350726f786961626c653a206e6f742075706772616461626c650000006044820152606401610c2d565b806001600160a01b03166352d1902d6040518163ffffffff1660e01b8152600401602060405180830381865afa15801561172c573d6000803e3d6000fd5b505050506040513d601f19601f82011682018060405250810190611750919061277a565b6117586108be565b146117b15760405162461bcd60e51b815260206004820152602360248201527f5555505350726f786961626c653a206e6f7420636f6d70617469626c65206c6f60448201526267696360e81b6064820152608401610c2d565b6001600160a01b03811630036118095760405162461bcd60e51b815260206004820152601960248201527f5555505350726f786961626c653a2070726f7879206c6f6f70000000000000006044820152606401610c2d565b611831817f360894a13ba1a3210667c828492db98dca3e2076cc3735a920a3ca505d382bbc55565b7fe011bc04c286c344a8fcbb8de77f953da762c3e25d8cdea984147fc4168a5dcc61185a6108be565b604080519182526001600160a01b038416602083015201610c97565b604080516060810182526000808252602082018190529181019190915261189b612292565b8351600090600f0b156119075784516118be906118b88682611f94565b90611fa4565b90506118d36118cc82611fb4565b8790611fbf565b92506118de85612000565b85519092506118fd906118f2908390611f94565b602087015190611fbf565b602083015261191e565b61191086612027565b925061191b85612000565b91505b93509350939050565b60006119328361151c565b9050836001600160a01b031663a1b2bf8b8261194d85612062565b6040518363ffffffff1660e01b815260040161196a929190612c45565b600060405180830381600087803b15801561198457600080fd5b505af1158015611998573d6000803e3d6000fd5b50505050826001600160a01b0316846001600160a01b03167f86b305bf4a877322eb88fcb06e72b31651aa8c58823f7cc42d4e2b9b016cf796846000015185602001518660400151604051611a0b9392919063ffffffff9390931683526020830191909152600b0b604082015260600190565b60405180910390a350505050565b604080514660208201526080918101829052601060a08201526f646973747269627574696f6e666c6f7760801b60c08201526001600160a01b03808516606083015283169181019190915260009060e00160405160208183030381529060405280519060200120905092915050565b611a90612292565b816001600160a01b03166381045ead6040518163ffffffff1660e01b8152600401608060405180830381865afa158015611ace573d6000803e3d6000fd5b505050506040513d601f19601f8201168201806040525081019061100b919061289c565b60006110088284612c93565b6040805160608101825260008082526020820181905291810191909152611b23612292565b6040805160608101825260008082526020820181905291810182905260408051606081018252600080825260208201819052918101919091526040805160608101825260008082526020820181905291810191909152885160208a015160400151600091611b9491600f0b906120ec565b9050611baf8a611ba683600f0b611c91565b8691908b6120f8565b50909350611bc390508a611ba6838c611d45565b90975095509150611bde82611bd88d86611bee565b90611bee565b9650505050509450945094915050565b60408051606081018252600080825260208201819052918101919091528151835160009163ffffffff908116911611611c28578251611c2b565b83515b90506000611c3985836121e6565b90506000611c4785846121e6565b63ffffffff8416855260208084015190820151919250611c6691611f5e565b602085015260408083015190820151611c7f9190611d45565b600f0b60408501525091949350505050565b600061100b82612cc0565b60408051631da5d3cd60e31b81528251600f90810b6004830152602080850151805163ffffffff1660248501529081015160448401529092015190910b60648201526001600160a01b0383169063ed2e9e68906084016020604051808303816000875af1158015611d11573d6000803e3d6000fd5b505050506040513d601f19601f82011682018060405250810190611d359190612747565b611d4157611d41612764565b5050565b60006110088284612ce6565b6000818152600183016020526040812054611d985750815460018181018455600084815260208082209093018490558454848252828601909352604090209190915561100b565b50600061100b565b60008181526001830160205260408120548015611e89576000611dc4600183612d13565b8554909150600090611dd890600190612d13565b9050818114611e3d576000866000018281548110611df857611df8612959565b9060005260206000200154905080876000018481548110611e1b57611e1b612959565b6000918252602080832090910192909255918252600188019052604090208390555b8554869080611e4e57611e4e612d26565b60019003818190600052602060002001600090559055856001016000868152602001908152602001600020600090556001935050505061100b565b600091505061100b565b5092915050565b60408051606081018252600080825260208201819052918101829052600083600081518110611ecb57611ecb612959565b602002602001015160001c9050600084600181518110611eed57611eed612959565b602002602001015160001c90506000821193508315611f3557604080516060808201835284901c63ffffffff1681526020810183905260a084901d600f0b9181019190915292505b5050915091565b60006110088284612d3c565b600061100863ffffffff8316600f85900b612d59565b600061100882846127a9565b6000826000018281548110611f8157611f81612959565b9060005260206000200154905092915050565b6000611008600f83900b84612d9f565b6000611008600f83900b84612d59565b600061100b82612dcd565b6040805160608101825260008082526020820181905291810191909152611fe583612027565b9050611ff5816020015183611f5e565b602082015292915050565b612008612292565b8151600f0b8152602082015161201d90612027565b6020820152919050565b6040805160608101825260008082526020808301828152838501928352855163ffffffff1684529085015190529290910151600f0b90915290565b60408051600280825260608083018452926020830190803683370190505090506060826000015163ffffffff16901b60a08360400151600f0b901b1760001b816000815181106120b4576120b4612959565b602002602001018181525050816020015160001b816001815181106120db576120db612959565b602002602001018181525050919050565b60006110088284612de9565b604080516060810182526000808252602082018190529181019190915261211d612292565b8451600090600f0b156121a85785516121479061213e600f88900b8261222c565b600f0b906120ec565b905061216861215882600f0b611c91565b61216289876121e6565b90612238565b9250612174868561226f565b915061219e612193876000015183600f0b61222c90919063ffffffff16565b602084015190612238565b60208301526121dc565b6121b7600061216289876121e6565b92506121c3868561226f565b60208101519092506121d6906000612238565b60208301525b9450945094915050565b604080516060810182526000808252602082018190529181019190915261220c83612027565b9050612218838361162a565b602082015263ffffffff9091168152919050565b60006110088284612e09565b604080516060810182526000808252602082018190529181019190915261225e83612027565b600f9290920b604083015250919050565b612277612292565b61228083612000565b6020810151909150611ff590836121e6565b60405180604001604052806000600f0b81526020016122ca604080516060810182526000808252602082018190529181019190915290565b905290565b6001600160a01b038116811461088c57600080fd5b801515811461088c57600080fd5b60008083601f84011261230457600080fd5b5081356001600160401b0381111561231b57600080fd5b60208301915083602082850101111561162357600080fd5b6000806000806060858703121561234957600080fd5b8435612354816122cf565b93506020850135612364816122e4565b925060408501356001600160401b0381111561237f57600080fd5b61238b878288016122f2565b95989497509550505050565b60005b838110156123b257818101518382015260200161239a565b50506000910152565b60208152600082518060208401526123da816040850160208701612397565b601f01601f19169190910160400192915050565b60008060006040848603121561240357600080fd5b833561240e816122cf565b925060208401356001600160401b0381111561242957600080fd5b612435868287016122f2565b9497909650939450505050565b60008060006060848603121561245757600080fd5b8335612462816122cf565b92506020840135612472816122cf565b929592945050506040919091013590565b60006020828403121561249557600080fd5b81356124a0816122cf565b9392505050565b600080604083850312156124ba57600080fd5b82356124c5816122cf565b915060208301356124d5816122cf565b809150509250929050565b6000806000806000608086880312156124f857600080fd5b8535612503816122cf565b94506020860135612513816122cf565b93506040860135925060608601356001600160401b0381111561253557600080fd5b612541888289016122f2565b969995985093965092949392505050565b80600b0b811461088c57600080fd5b6000806000806080858703121561257757600080fd5b8435612582816122cf565b93506020850135612592816122cf565b925060408501356125a2816122cf565b915060608501356125b281612552565b939692955090935050565b6000602082840312156125cf57600080fd5b5035919050565b60008083601f8401126125e857600080fd5b5081356001600160401b038111156125ff57600080fd5b60208301915083602060608302850101111561162357600080fd5b60008060008060006060868803121561263257600080fd5b853561263d816122cf565b945060208601356001600160401b038082111561265957600080fd5b818801915088601f83011261266d57600080fd5b81358181111561267c57600080fd5b8960208260051b850101111561269157600080fd5b6020830196508095505060408801359150808211156126af57600080fd5b50612541888289016125d6565b6000806000806000608086880312156126d457600080fd5b85356126df816122cf565b945060208601356126ef816122cf565b935060408601356126ff81612552565b925060608601356001600160401b0381111561253557600080fd5b8051612725816122cf565b919050565b60006020828403121561273c57600080fd5b81516124a0816122cf565b60006020828403121561275957600080fd5b81516124a0816122e4565b634e487b7160e01b600052600160045260246000fd5b60006020828403121561278c57600080fd5b5051919050565b634e487b7160e01b600052601160045260246000fd5b80820182811260008312801582168215821617156127c9576127c9612793565b505092915050565b6000600182016127e3576127e3612793565b5060010190565b634e487b7160e01b600052604160045260246000fd5b604051606081016001600160401b0381118282101715612822576128226127ea565b60405290565b60405161016081016001600160401b0381118282101715612822576128226127ea565b604051601f8201601f191681016001600160401b0381118282101715612873576128736127ea565b604052919050565b80600f0b811461088c57600080fd5b63ffffffff8116811461088c57600080fd5b600081830360808112156128af57600080fd5b604051604081018181106001600160401b03821117156128d1576128d16127ea565b60405283516128df8161287b565b81526060601f19830112156128f357600080fd5b6128fb612800565b9150602084015161290b8161288a565b82526040840151602083015260608401516129258161287b565b604083015260208101919091529392505050565b8181036000831280158383131683831282161715611e9357611e93612793565b634e487b7160e01b600052603260045260246000fd5b60006060828403121561298157600080fd5b612989612800565b82356129948161288a565b81526020838101359082015260408301356129ae8161287b565b60408201529392505050565b6000602082840312156129cc57600080fd5b81516124a081612552565b600b81810b9083900b016b7fffffffffffffffffffffff81136b7fffffffffffffffffffffff198212171561100b5761100b612793565b805160ff8116811461272557600080fd5b80516001600160e01b03198116811461272557600080fd5b600082601f830112612a4857600080fd5b81516001600160401b03811115612a6157612a616127ea565b612a74601f8201601f191660200161284b565b818152846020838601011115612a8957600080fd5b610698826020830160208701612397565b600060208284031215612aac57600080fd5b81516001600160401b0380821115612ac357600080fd5b908301906101608286031215612ad857600080fd5b612ae0612828565b612ae983612a0e565b8152612af760208401612a0e565b602082015260408301516040820152612b126060840161271a565b6060820152612b2360808401612a1f565b608082015260a083015182811115612b3a57600080fd5b612b4687828601612a37565b60a08301525060c083015160c082015260e083015160e0820152610100915081830151828201526101209150612b7d82840161271a565b828201526101409150612b9182840161271a565b91810191909152949350505050565b60006020808385031215612bb357600080fd5b82516001600160401b0380821115612bca57600080fd5b818501915085601f830112612bde57600080fd5b815181811115612bf057612bf06127ea565b8060051b9150612c0184830161284b565b8181529183018401918481019088841115612c1b57600080fd5b938501935b83851015612c3957845182529385019390850190612c20565b98975050505050505050565b6000604082018483526020604081850152818551808452606086019150828701935060005b81811015612c8657845183529383019391830191600101612c6a565b5090979650505050505050565b600f82810b9082900b0360016001607f1b0319811260016001607f1b038213171561100b5761100b612793565b600081600f0b60016001607f1b03198103612cdd57612cdd612793565b60000392915050565b600f81810b9083900b0160016001607f1b03811360016001607f1b03198212171561100b5761100b612793565b8181038181111561100b5761100b612793565b634e487b7160e01b600052603160045260246000fd5b63ffffffff828116828216039080821115611e9357611e93612793565b80820260008212600160ff1b84141615612d7557612d75612793565b818105831482151761100b5761100b612793565b634e487b7160e01b600052601260045260246000fd5b600082612dae57612dae612d89565b600160ff1b821460001984141615612dc857612dc8612793565b500590565b6000600160ff1b8201612de257612de2612793565b5060000390565b600082600f0b82600f0b0280600f0b9150808214611e9357611e93612793565b600081600f0b83600f0b80612e2057612e20612d89565b60016001607f1b0319821460001982141615612e3e57612e3e612793565b9005939250505056fea2646970667358221220c4ee7815e2ac8cfa1ccf2a795670da740fa8a830012c1129ca0496d14d26c39764736f6c63430008130033",
    "linkReferences": {
      "packages/ethereum-contracts/contracts/libs/SuperTokenPoolDeployerLibrary.sol": {
        "SuperTokenPoolDeployerLibrary": [
          {
            "start": 4730,
            "length": 20
          }
        ]
      }
    }
  },
  "methodIdentifiers": {
    "absorbParticlesFromPool(address,address[],(uint32,int256,int128)[])": "b0bd081f",
    "agreementType()": "7730599e",
    "castrate()": "9903ad38",
    "connectPool(address,bool,bytes)": "10dc8792",
    "connectPool(address,bytes)": "f0b7b915",
    "createPool(address,address)": "e3433615",
    "disconnectPool(address,bytes)": "30925b79",
    "distribute(address,address,uint256,bytes)": "84621bb7",
    "distributeFlow(address,address,int96,bytes)": "bc71d348",
    "flowRates(bytes32)": "aedda13a",
    "getCodeAddress()": "50d75d25",
    "getFlowDistributionActualFlowRate(address,address,address,int96)": "8a2c8d5e",
    "getFlowRate(address,address)": "c9426884",
    "getNetFlowRate(address,address)": "cc76e87b",
    "isMemberConnected(address,address)": "c782eb9c",
    "pools(address)": "a4063dbc",
    "proxiableUUID()": "52d1902d",
    "realtimeBalanceOf(address,address,uint256)": "9b2e48bc",
    "realtimeBalanceOfNow(address,address)": "5cfd50d7",
    "realtimeBalanceVectorAt(address,address,uint256)": "438c7b27",
    "updateCode(address)": "46951954"
  },
  "id": 45
}