{
  "contractName": "SuperToken",
  "abi": [
    {
      "inputs": [
        {
          "internalType": "contract ISuperfluid",
          "name": "host",
          "type": "address"
        }
      ],
      "stateMutability": "nonpayable",
      "type": "constructor"
    },
    {
      "inputs": [],
      "name": "SF_TOKEN_AGREEMENT_ALREADY_EXISTS",
      "type": "error"
    },
    {
      "inputs": [],
      "name": "SF_TOKEN_AGREEMENT_DOES_NOT_EXIST",
      "type": "error"
    },
    {
      "inputs": [],
      "name": "SF_TOKEN_BURN_INSUFFICIENT_BALANCE",
      "type": "error"
    },
    {
      "inputs": [],
      "name": "SF_TOKEN_MOVE_INSUFFICIENT_BALANCE",
      "type": "error"
    },
    {
      "inputs": [],
      "name": "SF_TOKEN_ONLY_HOST",
      "type": "error"
    },
    {
      "inputs": [],
      "name": "SF_TOKEN_ONLY_LISTED_AGREEMENT",
      "type": "error"
    },
    {
      "inputs": [],
      "name": "SUPER_TOKEN_APPROVE_FROM_ZERO_ADDRESS",
      "type": "error"
    },
    {
      "inputs": [],
      "name": "SUPER_TOKEN_APPROVE_TO_ZERO_ADDRESS",
      "type": "error"
    },
    {
      "inputs": [],
      "name": "SUPER_TOKEN_BURN_FROM_ZERO_ADDRESS",
      "type": "error"
    },
    {
      "inputs": [],
      "name": "SUPER_TOKEN_CALLER_IS_NOT_OPERATOR_FOR_HOLDER",
      "type": "error"
    },
    {
      "inputs": [],
      "name": "SUPER_TOKEN_INFLATIONARY_DEFLATIONARY_NOT_SUPPORTED",
      "type": "error"
    },
    {
      "inputs": [],
      "name": "SUPER_TOKEN_MINT_TO_ZERO_ADDRESS",
      "type": "error"
    },
    {
      "inputs": [],
      "name": "SUPER_TOKEN_NOT_ERC777_TOKENS_RECIPIENT",
      "type": "error"
    },
    {
      "inputs": [],
      "name": "SUPER_TOKEN_NO_UNDERLYING_TOKEN",
      "type": "error"
    },
    {
      "inputs": [],
      "name": "SUPER_TOKEN_ONLY_HOST",
      "type": "error"
    },
    {
      "inputs": [],
      "name": "SUPER_TOKEN_ONLY_SELF",
      "type": "error"
    },
    {
      "inputs": [],
      "name": "SUPER_TOKEN_TRANSFER_FROM_ZERO_ADDRESS",
      "type": "error"
    },
    {
      "inputs": [],
      "name": "SUPER_TOKEN_TRANSFER_TO_ZERO_ADDRESS",
      "type": "error"
    },
    {
      "anonymous": false,
      "inputs": [
        {
          "indexed": true,
          "internalType": "address",
          "name": "agreementClass",
          "type": "address"
        },
        {
          "indexed": false,
          "internalType": "bytes32",
          "name": "id",
          "type": "bytes32"
        },
        {
          "indexed": false,
          "internalType": "bytes32[]",
          "name": "data",
          "type": "bytes32[]"
        }
      ],
      "name": "AgreementCreated",
      "type": "event"
    },
    {
      "anonymous": false,
      "inputs": [
        {
          "indexed": true,
          "internalType": "address",
          "name": "agreementClass",
          "type": "address"
        },
        {
          "indexed": false,
          "internalType": "bytes32",
          "name": "id",
          "type": "bytes32"
        },
        {
          "indexed": true,
          "internalType": "address",
          "name": "penaltyAccount",
          "type": "address"
        },
        {
          "indexed": true,
          "internalType": "address",
          "name": "rewardAccount",
          "type": "address"
        },
        {
          "indexed": false,
          "internalType": "uint256",
          "name": "rewardAmount",
          "type": "uint256"
        }
      ],
      "name": "AgreementLiquidated",
      "type": "event"
    },
    {
      "anonymous": false,
      "inputs": [
        {
          "indexed": false,
          "internalType": "address",
          "name": "liquidatorAccount",
          "type": "address"
        },
        {
          "indexed": true,
          "internalType": "address",
          "name": "agreementClass",
          "type": "address"
        },
        {
          "indexed": false,
          "internalType": "bytes32",
          "name": "id",
          "type": "bytes32"
        },
        {
          "indexed": true,
          "internalType": "address",
          "name": "penaltyAccount",
          "type": "address"
        },
        {
          "indexed": true,
          "internalType": "address",
          "name": "bondAccount",
          "type": "address"
        },
        {
          "indexed": false,
          "internalType": "uint256",
          "name": "rewardAmount",
          "type": "uint256"
        },
        {
          "indexed": false,
          "internalType": "uint256",
          "name": "bailoutAmount",
          "type": "uint256"
        }
      ],
      "name": "AgreementLiquidatedBy",
      "type": "event"
    },
    {
      "anonymous": false,
      "inputs": [
        {
          "indexed": true,
          "internalType": "address",
          "name": "agreementClass",
          "type": "address"
        },
        {
          "indexed": false,
          "internalType": "bytes32",
          "name": "id",
          "type": "bytes32"
        },
        {
          "indexed": true,
          "internalType": "address",
          "name": "liquidatorAccount",
          "type": "address"
        },
        {
          "indexed": true,
          "internalType": "address",
          "name": "targetAccount",
          "type": "address"
        },
        {
          "indexed": false,
          "internalType": "address",
          "name": "rewardAmountReceiver",
          "type": "address"
        },
        {
          "indexed": false,
          "internalType": "uint256",
          "name": "rewardAmount",
          "type": "uint256"
        },
        {
          "indexed": false,
          "internalType": "int256",
          "name": "targetAccountBalanceDelta",
          "type": "int256"
        },
        {
          "indexed": false,
          "internalType": "bytes",
          "name": "liquidationTypeData",
          "type": "bytes"
        }
      ],
      "name": "AgreementLiquidatedV2",
      "type": "event"
    },
    {
      "anonymous": false,
      "inputs": [
        {
          "indexed": true,
          "internalType": "address",
          "name": "agreementClass",
          "type": "address"
        },
        {
          "indexed": true,
          "internalType": "address",
          "name": "account",
          "type": "address"
        },
        {
          "indexed": false,
          "internalType": "uint256",
          "name": "slotId",
          "type": "uint256"
        }
      ],
      "name": "AgreementStateUpdated",
      "type": "event"
    },
    {
      "anonymous": false,
      "inputs": [
        {
          "indexed": true,
          "internalType": "address",
          "name": "agreementClass",
          "type": "address"
        },
        {
          "indexed": false,
          "internalType": "bytes32",
          "name": "id",
          "type": "bytes32"
        }
      ],
      "name": "AgreementTerminated",
      "type": "event"
    },
    {
      "anonymous": false,
      "inputs": [
        {
          "indexed": true,
          "internalType": "address",
          "name": "agreementClass",
          "type": "address"
        },
        {
          "indexed": false,
          "internalType": "bytes32",
          "name": "id",
          "type": "bytes32"
        },
        {
          "indexed": false,
          "internalType": "bytes32[]",
          "name": "data",
          "type": "bytes32[]"
        }
      ],
      "name": "AgreementUpdated",
      "type": "event"
    },
    {
      "anonymous": false,
      "inputs": [
        {
          "indexed": true,
          "internalType": "address",
          "name": "owner",
          "type": "address"
        },
        {
          "indexed": true,
          "internalType": "address",
          "name": "spender",
          "type": "address"
        },
        {
          "indexed": false,
          "internalType": "uint256",
          "name": "value",
          "type": "uint256"
        }
      ],
      "name": "Approval",
      "type": "event"
    },
    {
      "anonymous": false,
      "inputs": [
        {
          "indexed": true,
          "internalType": "address",
          "name": "operator",
          "type": "address"
        },
        {
          "indexed": true,
          "internalType": "address",
          "name": "tokenHolder",
          "type": "address"
        }
      ],
      "name": "AuthorizedOperator",
      "type": "event"
    },
    {
      "anonymous": false,
      "inputs": [
        {
          "indexed": true,
          "internalType": "address",
          "name": "bailoutAccount",
          "type": "address"
        },
        {
          "indexed": false,
          "internalType": "uint256",
          "name": "bailoutAmount",
          "type": "uint256"
        }
      ],
      "name": "Bailout",
      "type": "event"
    },
    {
      "anonymous": false,
      "inputs": [
        {
          "indexed": true,
          "internalType": "address",
          "name": "operator",
          "type": "address"
        },
        {
          "indexed": true,
          "internalType": "address",
          "name": "from",
          "type": "address"
        },
        {
          "indexed": false,
          "internalType": "uint256",
          "name": "amount",
          "type": "uint256"
        },
        {
          "indexed": false,
          "internalType": "bytes",
          "name": "data",
          "type": "bytes"
        },
        {
          "indexed": false,
          "internalType": "bytes",
          "name": "operatorData",
          "type": "bytes"
        }
      ],
      "name": "Burned",
      "type": "event"
    },
    {
      "anonymous": false,
      "inputs": [
        {
          "indexed": false,
          "internalType": "bytes32",
          "name": "uuid",
          "type": "bytes32"
        },
        {
          "indexed": false,
          "internalType": "address",
          "name": "codeAddress",
          "type": "address"
        }
      ],
      "name": "CodeUpdated",
      "type": "event"
    },
    {
      "anonymous": false,
      "inputs": [
        {
          "indexed": false,
          "internalType": "uint8",
          "name": "version",
          "type": "uint8"
        }
      ],
      "name": "Initialized",
      "type": "event"
    },
    {
      "anonymous": false,
      "inputs": [
        {
          "indexed": true,
          "internalType": "address",
          "name": "operator",
          "type": "address"
        },
        {
          "indexed": true,
          "internalType": "address",
          "name": "to",
          "type": "address"
        },
        {
          "indexed": false,
          "internalType": "uint256",
          "name": "amount",
          "type": "uint256"
        },
        {
          "indexed": false,
          "internalType": "bytes",
          "name": "data",
          "type": "bytes"
        },
        {
          "indexed": false,
          "internalType": "bytes",
          "name": "operatorData",
          "type": "bytes"
        }
      ],
      "name": "Minted",
      "type": "event"
    },
    {
      "anonymous": false,
      "inputs": [
        {
          "indexed": true,
          "internalType": "address",
          "name": "operator",
          "type": "address"
        },
        {
          "indexed": true,
          "internalType": "address",
          "name": "tokenHolder",
          "type": "address"
        }
      ],
      "name": "RevokedOperator",
      "type": "event"
    },
    {
      "anonymous": false,
      "inputs": [
        {
          "indexed": true,
          "internalType": "address",
          "name": "operator",
          "type": "address"
        },
        {
          "indexed": true,
          "internalType": "address",
          "name": "from",
          "type": "address"
        },
        {
          "indexed": true,
          "internalType": "address",
          "name": "to",
          "type": "address"
        },
        {
          "indexed": false,
          "internalType": "uint256",
          "name": "amount",
          "type": "uint256"
        },
        {
          "indexed": false,
          "internalType": "bytes",
          "name": "data",
          "type": "bytes"
        },
        {
          "indexed": false,
          "internalType": "bytes",
          "name": "operatorData",
          "type": "bytes"
        }
      ],
      "name": "Sent",
      "type": "event"
    },
    {
      "anonymous": false,
      "inputs": [
        {
          "indexed": true,
          "internalType": "address",
          "name": "account",
          "type": "address"
        },
        {
          "indexed": false,
          "internalType": "uint256",
          "name": "amount",
          "type": "uint256"
        }
      ],
      "name": "TokenDowngraded",
      "type": "event"
    },
    {
      "anonymous": false,
      "inputs": [
        {
          "indexed": true,
          "internalType": "address",
          "name": "account",
          "type": "address"
        },
        {
          "indexed": false,
          "internalType": "uint256",
          "name": "amount",
          "type": "uint256"
        }
      ],
      "name": "TokenUpgraded",
      "type": "event"
    },
    {
      "anonymous": false,
      "inputs": [
        {
          "indexed": true,
          "internalType": "address",
          "name": "from",
          "type": "address"
        },
        {
          "indexed": true,
          "internalType": "address",
          "name": "to",
          "type": "address"
        },
        {
          "indexed": false,
          "internalType": "uint256",
          "name": "value",
          "type": "uint256"
        }
      ],
      "name": "Transfer",
      "type": "event"
    },
    {
      "inputs": [],
      "name": "castrate",
      "outputs": [],
      "stateMutability": "nonpayable",
      "type": "function"
    },
    {
      "inputs": [
        {
          "internalType": "bytes32",
          "name": "id",
          "type": "bytes32"
        },
        {
          "internalType": "bytes32[]",
          "name": "data",
          "type": "bytes32[]"
        }
      ],
      "name": "createAgreement",
      "outputs": [],
      "stateMutability": "nonpayable",
      "type": "function"
    },
    {
      "inputs": [
        {
          "internalType": "address",
          "name": "account",
          "type": "address"
        }
      ],
      "name": "getAccountActiveAgreements",
      "outputs": [
        {
          "internalType": "contract ISuperAgreement[]",
          "name": "",
          "type": "address[]"
        }
      ],
      "stateMutability": "view",
      "type": "function"
    },
    {
      "inputs": [
        {
          "internalType": "address",
          "name": "agreementClass",
          "type": "address"
        },
        {
          "internalType": "bytes32",
          "name": "id",
          "type": "bytes32"
        },
        {
          "internalType": "uint256",
          "name": "dataLength",
          "type": "uint256"
        }
      ],
      "name": "getAgreementData",
      "outputs": [
        {
          "internalType": "bytes32[]",
          "name": "data",
          "type": "bytes32[]"
        }
      ],
      "stateMutability": "view",
      "type": "function"
    },
    {
      "inputs": [
        {
          "internalType": "address",
          "name": "agreementClass",
          "type": "address"
        },
        {
          "internalType": "address",
          "name": "account",
          "type": "address"
        },
        {
          "internalType": "uint256",
          "name": "slotId",
          "type": "uint256"
        },
        {
          "internalType": "uint256",
          "name": "dataLength",
          "type": "uint256"
        }
      ],
      "name": "getAgreementStateSlot",
      "outputs": [
        {
          "internalType": "bytes32[]",
          "name": "slotData",
          "type": "bytes32[]"
        }
      ],
      "stateMutability": "view",
      "type": "function"
    },
    {
      "inputs": [],
      "name": "getCodeAddress",
      "outputs": [
        {
          "internalType": "address",
          "name": "codeAddress",
          "type": "address"
        }
      ],
      "stateMutability": "view",
      "type": "function"
    },
    {
      "inputs": [],
      "name": "getHost",
      "outputs": [
        {
          "internalType": "address",
          "name": "host",
          "type": "address"
        }
      ],
      "stateMutability": "view",
      "type": "function"
    },
    {
      "inputs": [
        {
          "internalType": "address",
          "name": "account",
          "type": "address"
        },
        {
          "internalType": "uint256",
          "name": "timestamp",
          "type": "uint256"
        }
      ],
      "name": "isAccountCritical",
      "outputs": [
        {
          "internalType": "bool",
          "name": "isCritical",
          "type": "bool"
        }
      ],
      "stateMutability": "view",
      "type": "function"
    },
    {
      "inputs": [
        {
          "internalType": "address",
          "name": "account",
          "type": "address"
        }
      ],
      "name": "isAccountCriticalNow",
      "outputs": [
        {
          "internalType": "bool",
          "name": "isCritical",
          "type": "bool"
        }
      ],
      "stateMutability": "view",
      "type": "function"
    },
    {
      "inputs": [
        {
          "internalType": "address",
          "name": "account",
          "type": "address"
        },
        {
          "internalType": "uint256",
          "name": "timestamp",
          "type": "uint256"
        }
      ],
      "name": "isAccountSolvent",
      "outputs": [
        {
          "internalType": "bool",
          "name": "isSolvent",
          "type": "bool"
        }
      ],
      "stateMutability": "view",
      "type": "function"
    },
    {
      "inputs": [
        {
          "internalType": "address",
          "name": "account",
          "type": "address"
        }
      ],
      "name": "isAccountSolventNow",
      "outputs": [
        {
          "internalType": "bool",
          "name": "isSolvent",
          "type": "bool"
        }
      ],
      "stateMutability": "view",
      "type": "function"
    },
    {
      "inputs": [
        {
          "internalType": "bytes32",
          "name": "id",
          "type": "bytes32"
        },
        {
          "internalType": "bytes",
          "name": "liquidationTypeData",
          "type": "bytes"
        },
        {
          "internalType": "address",
          "name": "liquidatorAccount",
          "type": "address"
        },
        {
          "internalType": "bool",
          "name": "useDefaultRewardAccount",
          "type": "bool"
        },
        {
          "internalType": "address",
          "name": "targetAccount",
          "type": "address"
        },
        {
          "internalType": "uint256",
          "name": "rewardAmount",
          "type": "uint256"
        },
        {
          "internalType": "int256",
          "name": "targetAccountBalanceDelta",
          "type": "int256"
        }
      ],
      "name": "makeLiquidationPayoutsV2",
      "outputs": [],
      "stateMutability": "nonpayable",
      "type": "function"
    },
    {
      "inputs": [
        {
          "internalType": "address",
          "name": "account",
          "type": "address"
        },
        {
          "internalType": "uint256",
          "name": "timestamp",
          "type": "uint256"
        }
      ],
      "name": "realtimeBalanceOf",
      "outputs": [
        {
          "internalType": "int256",
          "name": "availableBalance",
          "type": "int256"
        },
        {
          "internalType": "uint256",
          "name": "deposit",
          "type": "uint256"
        },
        {
          "internalType": "uint256",
          "name": "owedDeposit",
          "type": "uint256"
        }
      ],
      "stateMutability": "view",
      "type": "function"
    },
    {
      "inputs": [
        {
          "internalType": "address",
          "name": "account",
          "type": "address"
        }
      ],
      "name": "realtimeBalanceOfNow",
      "outputs": [
        {
          "internalType": "int256",
          "name": "availableBalance",
          "type": "int256"
        },
        {
          "internalType": "uint256",
          "name": "deposit",
          "type": "uint256"
        },
        {
          "internalType": "uint256",
          "name": "owedDeposit",
          "type": "uint256"
        },
        {
          "internalType": "uint256",
          "name": "timestamp",
          "type": "uint256"
        }
      ],
      "stateMutability": "view",
      "type": "function"
    },
    {
      "inputs": [
        {
          "internalType": "address",
          "name": "account",
          "type": "address"
        },
        {
          "internalType": "int256",
          "name": "delta",
          "type": "int256"
        }
      ],
      "name": "settleBalance",
      "outputs": [],
      "stateMutability": "nonpayable",
      "type": "function"
    },
    {
      "inputs": [
        {
          "internalType": "bytes32",
          "name": "id",
          "type": "bytes32"
        },
        {
          "internalType": "uint256",
          "name": "dataLength",
          "type": "uint256"
        }
      ],
      "name": "terminateAgreement",
      "outputs": [],
      "stateMutability": "nonpayable",
      "type": "function"
    },
    {
      "inputs": [
        {
          "internalType": "bytes32",
          "name": "id",
          "type": "bytes32"
        },
        {
          "internalType": "bytes32[]",
          "name": "data",
          "type": "bytes32[]"
        }
      ],
      "name": "updateAgreementData",
      "outputs": [],
      "stateMutability": "nonpayable",
      "type": "function"
    },
    {
      "inputs": [
        {
          "internalType": "address",
          "name": "account",
          "type": "address"
        },
        {
          "internalType": "uint256",
          "name": "slotId",
          "type": "uint256"
        },
        {
          "internalType": "bytes32[]",
          "name": "slotData",
          "type": "bytes32[]"
        }
      ],
      "name": "updateAgreementStateSlot",
      "outputs": [],
      "stateMutability": "nonpayable",
      "type": "function"
    },
    {
      "inputs": [
        {
          "internalType": "contract IERC20",
          "name": "underlyingToken",
          "type": "address"
        },
        {
          "internalType": "uint8",
          "name": "underlyingDecimals",
          "type": "uint8"
        },
        {
          "internalType": "string",
          "name": "n",
          "type": "string"
        },
        {
          "internalType": "string",
          "name": "s",
          "type": "string"
        }
      ],
      "name": "initialize",
      "outputs": [],
      "stateMutability": "nonpayable",
      "type": "function"
    },
    {
      "inputs": [],
      "name": "proxiableUUID",
      "outputs": [
        {
          "internalType": "bytes32",
          "name": "",
          "type": "bytes32"
        }
      ],
      "stateMutability": "pure",
      "type": "function"
    },
    {
      "inputs": [
        {
          "internalType": "address",
          "name": "newAddress",
          "type": "address"
        }
      ],
      "name": "updateCode",
      "outputs": [],
      "stateMutability": "nonpayable",
      "type": "function"
    },
    {
      "inputs": [],
      "name": "name",
      "outputs": [
        {
          "internalType": "string",
          "name": "",
          "type": "string"
        }
      ],
      "stateMutability": "view",
      "type": "function"
    },
    {
      "inputs": [],
      "name": "symbol",
      "outputs": [
        {
          "internalType": "string",
          "name": "",
          "type": "string"
        }
      ],
      "stateMutability": "view",
      "type": "function"
    },
    {
      "inputs": [],
      "name": "decimals",
      "outputs": [
        {
          "internalType": "uint8",
          "name": "",
          "type": "uint8"
        }
      ],
      "stateMutability": "pure",
      "type": "function"
    },
    {
      "inputs": [],
      "name": "totalSupply",
      "outputs": [
        {
          "internalType": "uint256",
          "name": "",
          "type": "uint256"
        }
      ],
      "stateMutability": "view",
      "type": "function"
    },
    {
      "inputs": [
        {
          "internalType": "address",
          "name": "account",
          "type": "address"
        }
      ],
      "name": "balanceOf",
      "outputs": [
        {
          "internalType": "uint256",
          "name": "balance",
          "type": "uint256"
        }
      ],
      "stateMutability": "view",
      "type": "function"
    },
    {
      "inputs": [
        {
          "internalType": "address",
          "name": "recipient",
          "type": "address"
        },
        {
          "internalType": "uint256",
          "name": "amount",
          "type": "uint256"
        }
      ],
      "name": "transfer",
      "outputs": [
        {
          "internalType": "bool",
          "name": "",
          "type": "bool"
        }
      ],
      "stateMutability": "nonpayable",
      "type": "function"
    },
    {
      "inputs": [
        {
          "internalType": "address",
          "name": "account",
          "type": "address"
        },
        {
          "internalType": "address",
          "name": "spender",
          "type": "address"
        }
      ],
      "name": "allowance",
      "outputs": [
        {
          "internalType": "uint256",
          "name": "",
          "type": "uint256"
        }
      ],
      "stateMutability": "view",
      "type": "function"
    },
    {
      "inputs": [
        {
          "internalType": "address",
          "name": "spender",
          "type": "address"
        },
        {
          "internalType": "uint256",
          "name": "amount",
          "type": "uint256"
        }
      ],
      "name": "approve",
      "outputs": [
        {
          "internalType": "bool",
          "name": "",
          "type": "bool"
        }
      ],
      "stateMutability": "nonpayable",
      "type": "function"
    },
    {
      "inputs": [
        {
          "internalType": "address",
          "name": "holder",
          "type": "address"
        },
        {
          "internalType": "address",
          "name": "recipient",
          "type": "address"
        },
        {
          "internalType": "uint256",
          "name": "amount",
          "type": "uint256"
        }
      ],
      "name": "transferFrom",
      "outputs": [
        {
          "internalType": "bool",
          "name": "",
          "type": "bool"
        }
      ],
      "stateMutability": "nonpayable",
      "type": "function"
    },
    {
      "inputs": [
        {
          "internalType": "address",
          "name": "spender",
          "type": "address"
        },
        {
          "internalType": "uint256",
          "name": "addedValue",
          "type": "uint256"
        }
      ],
      "name": "increaseAllowance",
      "outputs": [
        {
          "internalType": "bool",
          "name": "",
          "type": "bool"
        }
      ],
      "stateMutability": "nonpayable",
      "type": "function"
    },
    {
      "inputs": [
        {
          "internalType": "address",
          "name": "spender",
          "type": "address"
        },
        {
          "internalType": "uint256",
          "name": "subtractedValue",
          "type": "uint256"
        }
      ],
      "name": "decreaseAllowance",
      "outputs": [
        {
          "internalType": "bool",
          "name": "",
          "type": "bool"
        }
      ],
      "stateMutability": "nonpayable",
      "type": "function"
    },
    {
      "inputs": [],
      "name": "granularity",
      "outputs": [
        {
          "internalType": "uint256",
          "name": "",
          "type": "uint256"
        }
      ],
      "stateMutability": "pure",
      "type": "function"
    },
    {
      "inputs": [
        {
          "internalType": "address",
          "name": "recipient",
          "type": "address"
        },
        {
          "internalType": "uint256",
          "name": "amount",
          "type": "uint256"
        },
        {
          "internalType": "bytes",
          "name": "data",
          "type": "bytes"
        }
      ],
      "name": "send",
      "outputs": [],
      "stateMutability": "nonpayable",
      "type": "function"
    },
    {
      "inputs": [
        {
          "internalType": "uint256",
          "name": "amount",
          "type": "uint256"
        },
        {
          "internalType": "bytes",
          "name": "data",
          "type": "bytes"
        }
      ],
      "name": "burn",
      "outputs": [],
      "stateMutability": "nonpayable",
      "type": "function"
    },
    {
      "inputs": [
        {
          "internalType": "address",
          "name": "operator",
          "type": "address"
        },
        {
          "internalType": "address",
          "name": "tokenHolder",
          "type": "address"
        }
      ],
      "name": "isOperatorFor",
      "outputs": [
        {
          "internalType": "bool",
          "name": "",
          "type": "bool"
        }
      ],
      "stateMutability": "view",
      "type": "function"
    },
    {
      "inputs": [
        {
          "internalType": "address",
          "name": "operator",
          "type": "address"
        }
      ],
      "name": "authorizeOperator",
      "outputs": [],
      "stateMutability": "nonpayable",
      "type": "function"
    },
    {
      "inputs": [
        {
          "internalType": "address",
          "name": "operator",
          "type": "address"
        }
      ],
      "name": "revokeOperator",
      "outputs": [],
      "stateMutability": "nonpayable",
      "type": "function"
    },
    {
      "inputs": [],
      "name": "defaultOperators",
      "outputs": [
        {
          "internalType": "address[]",
          "name": "",
          "type": "address[]"
        }
      ],
      "stateMutability": "view",
      "type": "function"
    },
    {
      "inputs": [
        {
          "internalType": "address",
          "name": "sender",
          "type": "address"
        },
        {
          "internalType": "address",
          "name": "recipient",
          "type": "address"
        },
        {
          "internalType": "uint256",
          "name": "amount",
          "type": "uint256"
        },
        {
          "internalType": "bytes",
          "name": "data",
          "type": "bytes"
        },
        {
          "internalType": "bytes",
          "name": "operatorData",
          "type": "bytes"
        }
      ],
      "name": "operatorSend",
      "outputs": [],
      "stateMutability": "nonpayable",
      "type": "function"
    },
    {
      "inputs": [
        {
          "internalType": "address",
          "name": "account",
          "type": "address"
        },
        {
          "internalType": "uint256",
          "name": "amount",
          "type": "uint256"
        },
        {
          "internalType": "bytes",
          "name": "data",
          "type": "bytes"
        },
        {
          "internalType": "bytes",
          "name": "operatorData",
          "type": "bytes"
        }
      ],
      "name": "operatorBurn",
      "outputs": [],
      "stateMutability": "nonpayable",
      "type": "function"
    },
    {
      "inputs": [
        {
          "internalType": "address",
          "name": "account",
          "type": "address"
        },
        {
          "internalType": "uint256",
          "name": "amount",
          "type": "uint256"
        },
        {
          "internalType": "bytes",
          "name": "userData",
          "type": "bytes"
        }
      ],
      "name": "selfMint",
      "outputs": [],
      "stateMutability": "nonpayable",
      "type": "function"
    },
    {
      "inputs": [
        {
          "internalType": "address",
          "name": "account",
          "type": "address"
        },
        {
          "internalType": "uint256",
          "name": "amount",
          "type": "uint256"
        },
        {
          "internalType": "bytes",
          "name": "userData",
          "type": "bytes"
        }
      ],
      "name": "selfBurn",
      "outputs": [],
      "stateMutability": "nonpayable",
      "type": "function"
    },
    {
      "inputs": [
        {
          "internalType": "address",
          "name": "account",
          "type": "address"
        },
        {
          "internalType": "address",
          "name": "spender",
          "type": "address"
        },
        {
          "internalType": "uint256",
          "name": "amount",
          "type": "uint256"
        }
      ],
      "name": "selfApproveFor",
      "outputs": [],
      "stateMutability": "nonpayable",
      "type": "function"
    },
    {
      "inputs": [
        {
          "internalType": "address",
          "name": "holder",
          "type": "address"
        },
        {
          "internalType": "address",
          "name": "spender",
          "type": "address"
        },
        {
          "internalType": "address",
          "name": "recipient",
          "type": "address"
        },
        {
          "internalType": "uint256",
          "name": "amount",
          "type": "uint256"
        }
      ],
      "name": "selfTransferFrom",
      "outputs": [],
      "stateMutability": "nonpayable",
      "type": "function"
    },
    {
      "inputs": [
        {
          "internalType": "address",
          "name": "recipient",
          "type": "address"
        }
      ],
      "name": "transferAll",
      "outputs": [],
      "stateMutability": "nonpayable",
      "type": "function"
    },
    {
      "inputs": [],
      "name": "getUnderlyingToken",
      "outputs": [
        {
          "internalType": "address",
          "name": "",
          "type": "address"
        }
      ],
      "stateMutability": "view",
      "type": "function"
    },
    {
      "inputs": [
        {
          "internalType": "uint256",
          "name": "amount",
          "type": "uint256"
        }
      ],
      "name": "upgrade",
      "outputs": [],
      "stateMutability": "nonpayable",
      "type": "function"
    },
    {
      "inputs": [
        {
          "internalType": "address",
          "name": "to",
          "type": "address"
        },
        {
          "internalType": "uint256",
          "name": "amount",
          "type": "uint256"
        },
        {
          "internalType": "bytes",
          "name": "data",
          "type": "bytes"
        }
      ],
      "name": "upgradeTo",
      "outputs": [],
      "stateMutability": "nonpayable",
      "type": "function"
    },
    {
      "inputs": [
        {
          "internalType": "uint256",
          "name": "amount",
          "type": "uint256"
        }
      ],
      "name": "downgrade",
      "outputs": [],
      "stateMutability": "nonpayable",
      "type": "function"
    },
    {
      "inputs": [
        {
          "internalType": "address",
          "name": "to",
          "type": "address"
        },
        {
          "internalType": "uint256",
          "name": "amount",
          "type": "uint256"
        }
      ],
      "name": "downgradeTo",
      "outputs": [],
      "stateMutability": "nonpayable",
      "type": "function"
    },
    {
      "inputs": [
        {
          "internalType": "address",
          "name": "account",
          "type": "address"
        },
        {
          "internalType": "address",
          "name": "spender",
          "type": "address"
        },
        {
          "internalType": "uint256",
          "name": "amount",
          "type": "uint256"
        }
      ],
      "name": "operationApprove",
      "outputs": [],
      "stateMutability": "nonpayable",
      "type": "function"
    },
    {
      "inputs": [
        {
          "internalType": "address",
          "name": "account",
          "type": "address"
        },
        {
          "internalType": "address",
          "name": "spender",
          "type": "address"
        },
        {
          "internalType": "uint256",
          "name": "addedValue",
          "type": "uint256"
        }
      ],
      "name": "operationIncreaseAllowance",
      "outputs": [],
      "stateMutability": "nonpayable",
      "type": "function"
    },
    {
      "inputs": [
        {
          "internalType": "address",
          "name": "account",
          "type": "address"
        },
        {
          "internalType": "address",
          "name": "spender",
          "type": "address"
        },
        {
          "internalType": "uint256",
          "name": "subtractedValue",
          "type": "uint256"
        }
      ],
      "name": "operationDecreaseAllowance",
      "outputs": [],
      "stateMutability": "nonpayable",
      "type": "function"
    },
    {
      "inputs": [
        {
          "internalType": "address",
          "name": "account",
          "type": "address"
        },
        {
          "internalType": "address",
          "name": "spender",
          "type": "address"
        },
        {
          "internalType": "address",
          "name": "recipient",
          "type": "address"
        },
        {
          "internalType": "uint256",
          "name": "amount",
          "type": "uint256"
        }
      ],
      "name": "operationTransferFrom",
      "outputs": [],
      "stateMutability": "nonpayable",
      "type": "function"
    },
    {
      "inputs": [
        {
          "internalType": "address",
          "name": "spender",
          "type": "address"
        },
        {
          "internalType": "address",
          "name": "recipient",
          "type": "address"
        },
        {
          "internalType": "uint256",
          "name": "amount",
          "type": "uint256"
        },
        {
          "internalType": "bytes",
          "name": "userData",
          "type": "bytes"
        }
      ],
      "name": "operationSend",
      "outputs": [],
      "stateMutability": "nonpayable",
      "type": "function"
    },
    {
      "inputs": [
        {
          "internalType": "address",
          "name": "account",
          "type": "address"
        },
        {
          "internalType": "uint256",
          "name": "amount",
          "type": "uint256"
        }
      ],
      "name": "operationUpgrade",
      "outputs": [],
      "stateMutability": "nonpayable",
      "type": "function"
    },
    {
      "inputs": [
        {
          "internalType": "address",
          "name": "account",
          "type": "address"
        },
        {
          "internalType": "uint256",
          "name": "amount",
          "type": "uint256"
        }
      ],
      "name": "operationDowngrade",
      "outputs": [],
      "stateMutability": "nonpayable",
      "type": "function"
    }
  ],
  "bytecode": "0x60a06040523480156200001157600080fd5b506040516200492238038062004922833981016040819052620000349162000046565b6001600160a01b031660805262000078565b6000602082840312156200005957600080fd5b81516001600160a01b03811681146200007157600080fd5b9392505050565b608051614810620001126000396000818161045e01528181610af601528181610b6501528181610e0801528181610f2301528181610ff2015281816112440152818161128d015281816113da0152818161156d0152818161194301528181611a0601528181611a9e01528181611b0601528181611b8e01528181612379015281816124100152818161346401526136a001526148106000f3fe608060405234801561001057600080fd5b506004361061038e5760003560e01c806366a12fb6116101de578063b84cdd4a1161010f578063d95b6371116100ad578063ee719bc81161007c578063ee719bc81461082a578063fad8b32a1461083b578063fc673c4f1461084e578063fe9d93031461086157600080fd5b8063d95b63711461079d578063d9d078d6146107b0578063dd62ed3e146107c3578063eb3537cc146107fc57600080fd5b8063c780fd82116100e9578063c780fd8214610751578063ca0c1e7f14610764578063ca78946414610777578063cf97256d1461078a57600080fd5b8063b84cdd4a14610718578063bb0d196e1461072b578063c68d42831461073e57600080fd5b80639903ad381161017c578063a1b2bf8b11610156578063a1b2bf8b146106cc578063a3a7e7f3146106df578063a457c2d7146106f2578063a9059cbb1461070557600080fd5b80639903ad381461069e5780639bd9bbc6146106a65780639d876741146106b957600080fd5b806379359f6f116101b857806379359f6f1461065d57806383ba252514610670578063959b8c3f1461068357806395d89b411461069657600080fd5b806366a12fb6146106245780636c2d9f2f1461063757806370a082311461064a57600080fd5b8063313ce567116102c35780634b2763b311610261578063556f0dc711610230578063556f0dc7146105e45780635b9d09cc146105eb57806362aa5287146105fe57806362ad1b831461061157600080fd5b80634b2763b3146105835780634b61cc331461059657806350d75d25146105b657806352d1902d146105be57600080fd5b806341b706be1161029d57806341b706be1461053757806342fe09801461054a57806345977d031461055d578063469519541461057057600080fd5b8063313ce56714610502578063386fa22114610511578063395093511461052457600080fd5b806318160ddd1161033057806323b872dd1161030a57806323b872dd14610496578063245887fc146104a957806327048397146104bc5780632ec8eec7146104cf57600080fd5b806318160ddd146104375780631863e8091461044957806320bc44251461045c57600080fd5b8063095ea7b31161036c578063095ea7b3146103db57806311bcc81e146103fe57806312a6a3f81461041157806316d055d61461042457600080fd5b806306e485381461039357806306fdde03146103b1578063090c415e146103c6575b600080fd5b61039b610874565b6040516103a891906138ba565b60405180910390f35b6103b9610885565b6040516103a89190613957565b6103d96103d43660046139ca565b610917565b005b6103ee6103e9366004613a25565b6109cb565b60405190151581526020016103a8565b6103d961040c366004613a51565b6109e2565b6103d961041f366004613a6a565b610a11565b6103d9610432366004613ab5565b610af4565b6003545b6040519081526020016103a8565b6103d9610457366004613bc9565b610b50565b7f00000000000000000000000000000000000000000000000000000000000000005b6040516001600160a01b0390911681526020016103a8565b6103ee6104a4366004613c5b565b610df0565b6103d96104b7366004613a25565b610e06565b6103d96104ca366004613c9c565b610e7f565b6104e26104dd366004613cbe565b610f1b565b6040805194855260208501939093529183015260608201526080016103a8565b604051601281526020016103a8565b61039b61051f366004613cbe565b610fbe565b6103ee610532366004613a25565b611061565b6103d9610545366004613ab5565b61109d565b6103d9610558366004613d1c565b6110c9565b6103d961056b366004613a51565b61120d565b6103d961057e366004613cbe565b611239565b6103d9610591366004613c5b565b61128b565b6105a96105a4366004613db6565b611312565b6040516103a89190613dfc565b61047e611357565b7f6bfbb132610e56cb96575dba244667b9d6dbfeffe22b68a79fa16f2d18eb001961043b565b600161043b565b6103d96105f9366004613e34565b611381565b6103d961060c366004613c5b565b6113d8565b6103d961061f366004613e83565b61142c565b6103d9610632366004613c5b565b6114da565b6105a9610645366004613f21565b6114fa565b61043b610658366004613cbe565b61153c565b6103ee61066b366004613cbe565b611565565b6103d961067e366004613a25565b6115ed565b6103d9610691366004613cbe565b611619565b6103b961166a565b6103d9611679565b6103d96106b4366004613e34565b61173b565b6103d96106c7366004613f56565b61178f565b6103d96106da366004613a6a565b6117cf565b6103d96106ed366004613cbe565b611879565b6103ee610700366004613a25565b61188d565b6103ee610713366004613a25565b6118dc565b6103ee610726366004613a25565b6118ea565b6103ee610739366004613cbe565b61193b565b6103d961074c366004613f56565b6119c3565b6103d961075f366004613c5b565b611a04565b6103d9610772366004613fae565b611a9c565b6103d9610785366004613a25565b611b04565b6103d9610798366004613a25565b611b79565b6103ee6107ab366004614019565b611c62565b6103ee6107be366004613a25565b611c70565b61043b6107d1366004614019565b6001600160a01b03918216600090815260116020908152604080832093909416825291909152205490565b61080f61080a366004613a25565b611c8a565b604080519384526020840192909252908201526060016103a8565b600e546001600160a01b031661047e565b6103d9610849366004613cbe565b611dc4565b6103d961085c366004614052565b611e15565b6103d961086f366004614099565b611eb6565b60606108806012611f07565b905090565b6060600f8054610894906140d7565b80601f01602080910402602001604051908101604052809291908181526020018280546108c0906140d7565b801561090d5780601f106108e25761010080835404028352916020019161090d565b820191906000526020600020905b8154815290600101906020018083116108f057829003601f168201915b5050505050905090565b600033858560405160200161092e93929190614111565b60405160208183030381529060405280519060200120905061098381848480806020026020016040519081016040528093929190818152602001838360200280828437600092019190915250611f6d92505050565b6040518481526001600160a01b0386169033907f30f416fa68fca014a0f334464c64b000ba53e99b6d2afdea9d5ca756372d5985906020015b60405180910390a35050505050565b60006109d8338484611fae565b5060015b92915050565b610a0e33333384604051806020016040528060008152506040518060200160405280600081525061205e565b50565b6040513390600090610a29908390879060200161415a565b60408051601f1981840301815291905280516020909101209050610a4d8184612218565b15610a6b5760405163782a90fb60e11b815260040160405180910390fd5b610aa881858580806020026020016040519081016040528093929190818152602001838360200280828437600092019190915250611f6d92505050565b816001600160a01b03167f770ea40a13a4644573ed785e5c7116890709947918747febc5add46feb531e2d868686604051610ae593929190614197565b60405180910390a25050505050565b7f00000000000000000000000000000000000000000000000000000000000000006001600160a01b03163314610b3d5760405163c51efddd60e01b815260040160405180910390fd5b610b4984848484612254565b5050505050565b604051632329212160e21b81523360048201527f00000000000000000000000000000000000000000000000000000000000000006001600160a01b031690638ca4848490602401602060405180830381865afa158015610bb4573d6000803e3d6000fd5b505050506040513d601f19601f82011682018060405250810190610bd891906141d8565b610bf55760405163327fd99160e21b815260040160405180910390fd5b6000610bff612374565b90506001600160a01b038116610c125750845b600085610c1f5786610c21565b815b905060008313610cbe57610c348361420b565b610c3d856124b9565b14610c4a57610c4a614227565b610c53846124b9565b6001600160a01b03821660009081526002602052604081208054909190610c7b90849061423d565b90915550506001600160a01b03851660009081526002602052604081208054859290610ca890849061423d565b90915550610cb99050858286612527565b610d88565b8515610ccc57610ccc614227565b82610cd6856124b9565b610ce0919061423d565b6001600160a01b03831660009081526002602052604081208054909190610d08908490614265565b90915550610d179050846124b9565b6001600160a01b03881660009081526002602052604081208054909190610d3f90849061423d565b90915550506001600160a01b03851660009081526002602052604081208054859290610d6c90849061423d565b90915550610d7d9050828886612527565b610d88828685612527565b846001600160a01b0316876001600160a01b0316336001600160a01b03167fb8381a3ce157650e06186e3e8f4dd4dc29236f2688b6eed1893d0a60d7c6386f8c8589898f604051610ddd959493929190614285565b60405180910390a4505050505050505050565b6000610dfe33858585612254565b949350505050565b7f00000000000000000000000000000000000000000000000000000000000000006001600160a01b03163314610e4f5760405163c51efddd60e01b815260040160405180910390fd5b610e7b33838484604051806020016040528060008152506040518060200160405280600081525061205e565b5050565b6040513390600090610e97908390869060200161415a565b604051602081830303815290604052805190602001209050610eb98184612218565b610ed65760405163dae1880960e01b815260040160405180910390fd5b610ee0818461255a565b60405184815233907f71a63dc095de07aa5512ad57a7596a39516317e316981a1cd71000057be1537b9060200160405180910390a250505050565b6000806000807f00000000000000000000000000000000000000000000000000000000000000006001600160a01b031663bbe4fd506040518163ffffffff1660e01b8152600401602060405180830381865afa158015610f7f573d6000803e3d6000fd5b505050506040513d601f19601f82011682018060405250810190610fa391906142b8565b9050610faf8582611c8a565b91979096509094509092509050565b6001600160a01b038181166000908152600160205260409081902054905163c56a069d60e01b8152901960048201526060917f0000000000000000000000000000000000000000000000000000000000000000169063c56a069d90602401600060405180830381865afa158015611039573d6000803e3d6000fd5b505050506040513d6000823e601f3d908101601f191682016040526109dc91908101906142d1565b3360008181526011602090815260408083206001600160a01b038716845290915281205490916109d8918590611098908690614382565b611fae565b3330146110bd57604051630fff4cc960e31b815260040160405180910390fd5b610b4983858484612254565b600054610100900460ff16158080156110e95750600054600160ff909116105b806111035750303b158015611103575060005460ff166001145b6111285760405162461bcd60e51b815260040161111f90614395565b60405180910390fd5b6000805460ff19166001179055801561114b576000805461ff0019166101001790555b600e805460ff8816600160a01b026001600160a81b03199091166001600160a01b038a1617179055600f611180858783614431565b50601061118e838583614431565b506111983061257b565b604051600080825290819060008051602061478e8339815191529060200160405180910390a38015611204576000805461ff0019169055604051600181527f7f26b83ff96e1f2b6a682f133852f6798a09c465da95921460cefb38474024989060200160405180910390a15b50505050505050565b610a0e3333338460405180602001604052806000815250604051806020016040528060008152506126a9565b336001600160a01b037f000000000000000000000000000000000000000000000000000000000000000016146112825760405163263dcdc160e21b815260040160405180910390fd5b610a0e81612859565b7f00000000000000000000000000000000000000000000000000000000000000006001600160a01b031633146112d45760405163c51efddd60e01b815260040160405180910390fd5b6001600160a01b0380841660009081526011602090815260408083209386168352929052205461130d9084908490611098908590614382565b505050565b6060600085858560405160200161132b93929190614111565b60405160208183030381529060405280519060200120905061134d8184612a93565b9695505050505050565b60006108807f360894a13ba1a3210667c828492db98dca3e2076cc3735a920a3ca505d382bbc5490565b6113d23333868686868080601f0160208091040260200160405190810160405280939291908181526020018383808284376000920182905250604080516020810190915290815292506126a9915050565b50505050565b7f00000000000000000000000000000000000000000000000000000000000000006001600160a01b031633146114215760405163c51efddd60e01b815260040160405180910390fd5b61130d838383611fae565b336114396012828a612b22565b6114565760405163f7f0222760e01b815260040160405180910390fd5b6114d08189898989898080601f01602080910402602001604051908101604052809392919081815260200183838082843760009201919091525050604080516020601f8d018190048102820181019092528b815292508b91508a908190840183828082843760009201919091525060019250612bcb915050565b5050505050505050565b33301461142157604051630fff4cc960e31b815260040160405180910390fd5b60606000848460405160200161151192919061415a565b6040516020818303038152906040528051906020012090506115338184612a93565b95945050505050565b60008061154883610f1b565b50505090506000811261155b578061155e565b60005b9392505050565b60006109dc827f00000000000000000000000000000000000000000000000000000000000000006001600160a01b031663bbe4fd506040518163ffffffff1660e01b8152600401602060405180830381865afa1580156115c9573d6000803e3d6000fd5b505050506040513d601f19601f820116820180604052508101906107be91906142b8565b610e7b33338484604051806020016040528060008152506040518060200160405280600081525061205e565b3361162660128284612c44565b806001600160a01b0316826001600160a01b03167ff4caeb2d6ca8932a215a353d0703c326ec2d81fc68170f320eb2ab49e9df61f960405160405180910390a35050565b606060108054610894906140d7565b600054610100900460ff16158080156116995750600054600160ff909116105b806116b35750303b1580156116b3575060005460ff166001145b6116cf5760405162461bcd60e51b815260040161111f90614395565b6000805460ff1916600117905580156116f2576000805461ff0019166101001790555b8015610a0e576000805461ff0019169055604051600181527f7f26b83ff96e1f2b6a682f133852f6798a09c465da95921460cefb3847402498906020015b60405180910390a150565b6113d23333868686868080601f01602080910402602001604051908101604052809392919081815260200183838082843760009201829052506040805160208101909152908152925060019150612bcb9050565b3330146117af57604051630fff4cc960e31b815260040160405180910390fd5b60408051600081526020810190915261130d903390859085908590612d48565b60405133906000906117e7908390879060200161415a565b60405160208183030381529060405280519060200120905061183c81858580806020026020016040519081016040528093929190818152602001838360200280828437600092019190915250611f6d92505050565b336001600160a01b03167f0c4c547b3a4fcaa5be8353b3111472b124155bccc86de811d4a481c9e6e9faca868686604051610ae593929190614197565b610e7b3333836118883361153c565b612254565b60006109d83384611098856040518060600160405280602a8152602001614764602a91393360009081526011602090815260408083206001600160a01b038d1684529091529020549190612e03565b600061155e33338585612254565b6000806000806118fa8686611c8a565b92509250925060006119228284116119135760006124b9565b61191d83856144f0565b6124b9565b61192c908561423d565b60001315979650505050505050565b60006109dc827f00000000000000000000000000000000000000000000000000000000000000006001600160a01b031663bbe4fd506040518163ffffffff1660e01b8152600401602060405180830381865afa15801561199f573d6000803e3d6000fd5b505050506040513d601f19601f8201168201806040525081019061072691906142b8565b3330146119e357604051630fff4cc960e31b815260040160405180910390fd5b6040805160008082526020820190925261130d913391869186918690612e2f565b7f00000000000000000000000000000000000000000000000000000000000000006001600160a01b03163314611a4d5760405163c51efddd60e01b815260040160405180910390fd5b61130d8383611098846040518060600160405280602a8152602001614764602a91396001600160a01b03808a166000908152601160209081526040808320938c16835292905220549190612e03565b7f00000000000000000000000000000000000000000000000000000000000000006001600160a01b03163314611ae55760405163c51efddd60e01b815260040160405180910390fd5b6113d23385858585604051806020016040528060008152506001612bcb565b7f00000000000000000000000000000000000000000000000000000000000000006001600160a01b03163314611b4d5760405163c51efddd60e01b815260040160405180910390fd5b610e7b3383848460405180602001604052806000815250604051806020016040528060008152506126a9565b604051632329212160e21b81523360048201527f00000000000000000000000000000000000000000000000000000000000000006001600160a01b031690638ca4848490602401602060405180830381865afa158015611bdd573d6000803e3d6000fd5b505050506040513d601f19601f82011682018060405250810190611c0191906141d8565b611c1e5760405163327fd99160e21b815260040160405180910390fd5b6001600160a01b038216600090815260026020526040902054611c4290829061423d565b6001600160a01b0390921660009081526002602052604090209190915550565b600061155e60128484612b22565b600080611c7d8484611c8a565b5050600013949350505050565b6001600160a01b038216600090815260026020526040812054908080611caf86610fbe565b905060005b8151811015611dbb576000806000848481518110611cd457611cd4614503565b60209081029190910101516040516326cb922f60e21b81523060048201526001600160a01b038c81166024830152604482018c905290911690639b2e48bc90606401606060405180830381865afa158015611d33573d6000803e3d6000fd5b505050506040513d601f19601f82011682018060405250810190611d579190614519565b91945092509050611d688288614382565b9650611d748187614382565b9550611d91818311611d875760006124b9565b61191d82846144f0565b611d9b848a61423d565b611da59190614265565b975050505080611db490614547565b9050611cb4565b50509250925092565b33611dd160128284612ef7565b806001600160a01b0316826001600160a01b03167f50546e66e5f44d728365dc3908c63bc5cfeeab470722c1677e3073a6ac294aa160405160405180910390a35050565b33611e2260128289612b22565b611e3f5760405163f7f0222760e01b815260040160405180910390fd5b6112048188898989898080601f01602080910402602001604051908101604052809392919081815260200183838082843760009201919091525050604080516020601f8d018190048102820181019092528b815292508b91508a908190840183828082843760009201919091525061205e92505050565b61130d3333338686868080601f01602080910402602001604051908101604052809392919081815260200183838082843760009201829052506040805160208101909152908152925061205e915050565b606081600001805480602002602001604051908101604052809291908181526020018280548015611f6157602002820191906000526020600020905b81546001600160a01b03168152600190910190602001808311611f43575b50505050509050919050565b60005b815181101561130d576000828281518110611f8d57611f8d614503565b6020026020010151905080828501555080611fa790614547565b9050611f70565b6001600160a01b038316611fd557604051638163862760e01b815260040160405180910390fd5b6001600160a01b038216611ffc576040516337c1c09d60e21b815260040160405180910390fd5b6001600160a01b0383811660008181526011602090815260408083209487168084529482529182902085905590518481527f8c5be1e5ebec7d5bd14f71427d1e84f3dd0314c0f7b2291e5b200ac8c7c3b92591015b60405180910390a3505050565b600e546001600160a01b031661208757604051637bce7b2b60e11b815260040160405180910390fd5b60008061209385612fef565b915091506120a48888838787612d48565b600e546040516370a0823160e01b81523060048201526000916001600160a01b0316906370a0823190602401602060405180830381865afa1580156120ed573d6000803e3d6000fd5b505050506040513d601f19601f8201168201806040525081019061211191906142b8565b600e5490915061212b906001600160a01b031688856130ab565b600e546040516370a0823160e01b81523060048201526000916001600160a01b0316906370a0823190602401602060405180830381865afa158015612174573d6000803e3d6000fd5b505050506040513d601f19601f8201168201806040525081019061219891906142b8565b905060006121a682846144f0565b90508085146121c857604051631c7c26d360e31b815260040160405180910390fd5b896001600160a01b03167f3bc27981aebbb57f9247dc00fde9d6cd91e4b230083fec3238fedbcba1f9ab3d8560405161220391815260200190565b60405180910390a25050505050505050505050565b6000805b8281101561224a57838101548015612239576001925050506109dc565b5061224381614547565b905061221c565b5060009392505050565b60006001600160a01b03841661227d5760405163eecd6c9b60e01b815260040160405180910390fd5b6001600160a01b0383166122a45760405163e219bd3960e01b815260040160405180910390fd5b60003390506122d581868686604051806020016040528060008152506040518060200160405280600081525061310e565b846001600160a01b0316866001600160a01b031614612368576123688587611098866040518060600160405280602d81526020016147ae602d9139601160008c6001600160a01b03166001600160a01b0316815260200190815260200160002060008d6001600160a01b03166001600160a01b0316815260200190815260200160002054612e039092919063ffffffff16565b50600195945050505050565b6000807f00000000000000000000000000000000000000000000000000000000000000006001600160a01b031663289b3c0d6040518163ffffffff1660e01b8152600401602060405180830381865afa1580156123d5573d6000803e3d6000fd5b505050506040513d601f19601f820116820180604052508101906123f99190614560565b604051638369a0f160e01b81526001600160a01b037f0000000000000000000000000000000000000000000000000000000000000000811660048301523060248301527f9f60ae461adf056670e03ae602566409933242392cb06744f5747c9f38b05d09604483015291925090821690638369a0f190606401602060405180830381865afa15801561248f573d6000803e3d6000fd5b505050506040513d601f19601f820116820180604052508101906124b39190614560565b91505090565b60006001600160ff1b038211156125235760405162461bcd60e51b815260206004820152602860248201527f53616665436173743a2076616c756520646f65736e27742066697420696e2061604482015267371034b73a191a9b60c11b606482015260840161111f565b5090565b816001600160a01b0316836001600160a01b031660008051602061478e8339815191528360405161205191815260200190565b60005b8181101561130d5760008382015561257481614547565b905061255d565b6040516329965a1d60e01b81526001600160a01b03821660048201527fac7fbab5f54a3ca8194167523c6753bfeb96a445279294b6125b68cce21770546024820152306044820152731820a4b7618bde71dce8cdc73aab6c95905fad24906329965a1d90606401600060405180830381600087803b1580156125fc57600080fd5b505af1158015612610573d6000803e3d6000fd5b50506040516329965a1d60e01b81526001600160a01b03841660048201527faea199e31a596269b42cdafd93407f14436db6e4cad65417994c2eb37381e05a6024820152306044820152731820a4b7618bde71dce8cdc73aab6c95905fad2492506329965a1d9150606401600060405180830381600087803b15801561269557600080fd5b505af1158015610b49573d6000803e3d6000fd5b600e546001600160a01b03166126d257604051637bce7b2b60e11b815260040160405180910390fd5b6000806126de85612fef565b600e546040516370a0823160e01b81523060048201529294509092506000916001600160a01b03909116906370a0823190602401602060405180830381865afa15801561272f573d6000803e3d6000fd5b505050506040513d601f19601f8201168201806040525081019061275391906142b8565b600e5490915061276e906001600160a01b03168930866131ad565b600e546040516370a0823160e01b81523060048201526000916001600160a01b0316906370a0823190602401602060405180830381865afa1580156127b7573d6000803e3d6000fd5b505050506040513d601f19601f820116820180604052508101906127db91906142b8565b905060006127e983836144f0565b905080851461280b57604051631c7c26d360e31b815260040160405180910390fd5b61281e8b8a868a51600014158b8b612e2f565b886001600160a01b03167f25ca84076773b0455db53621c459ddc84fe40840e4932a62706a032566f399df8560405161220391815260200190565b60006128837f360894a13ba1a3210667c828492db98dca3e2076cc3735a920a3ca505d382bbc5490565b6001600160a01b0316036128d95760405162461bcd60e51b815260206004820152601d60248201527f5555505350726f786961626c653a206e6f742075706772616461626c65000000604482015260640161111f565b806001600160a01b03166352d1902d6040518163ffffffff1660e01b8152600401602060405180830381865afa158015612917573d6000803e3d6000fd5b505050506040513d601f19601f8201168201806040525081019061293b91906142b8565b7f6bfbb132610e56cb96575dba244667b9d6dbfeffe22b68a79fa16f2d18eb0019146129b55760405162461bcd60e51b815260206004820152602360248201527f5555505350726f786961626c653a206e6f7420636f6d70617469626c65206c6f60448201526267696360e81b606482015260840161111f565b6001600160a01b0381163003612a0d5760405162461bcd60e51b815260206004820152601960248201527f5555505350726f786961626c653a2070726f7879206c6f6f7000000000000000604482015260640161111f565b612a35817f360894a13ba1a3210667c828492db98dca3e2076cc3735a920a3ca505d382bbc55565b7fe011bc04c286c344a8fcbb8de77f953da762c3e25d8cdea984147fc4168a5dcc7f6bfbb132610e56cb96575dba244667b9d6dbfeffe22b68a79fa16f2d18eb0019604080519182526001600160a01b038416602083015201611730565b6060816001600160401b03811115612aad57612aad613b06565b604051908082528060200260200182016040528015612ad6578160200160208202803683370190505b50905060005b82811015612b1b57600081850154905080838381518110612aff57612aff614503565b602090810291909101015250612b1481614547565b9050612adc565b5092915050565b6000816001600160a01b0316836001600160a01b03161480612b9157506001600160a01b038316600090815260018501602052604090205460ff168015612b9157506001600160a01b03808316600090815260038601602090815260408083209387168352929052205460ff16155b80610dfe57506001600160a01b03808316600090815260028601602090815260408083209387168352929052205460ff1690509392505050565b6001600160a01b038616612bf25760405163eecd6c9b60e01b815260040160405180910390fd5b6001600160a01b038516612c195760405163e219bd3960e01b815260040160405180910390fd5b612c278787878787876131e5565b612c3587878787878761310e565b6112048787878787878761330c565b806001600160a01b0316826001600160a01b031603612cbb5760405162461bcd60e51b815260206004820152602d60248201527f4552433737374f70657261746f72733a20617574686f72697a696e672073656c60448201526c331030b99037b832b930ba37b960991b606482015260840161111f565b6001600160a01b038116600090815260018401602052604090205460ff1615612d11576001600160a01b03918216600090815260039390930160209081526040808520929093168452529020805460ff19169055565b6001600160a01b0380831660009081526002850160209081526040808320938516835292905220805460ff19166001179055505050565b6001600160a01b038416612d6f57604051632e8aac6160e21b815260040160405180910390fd5b612d7e858560008686866131e5565b612d88848461345c565b836001600160a01b0316856001600160a01b03167fa78a9be3a7b862d26933ad85fb11d80ef66b8f972d7cbba06621d583943a4098858585604051612dcf9392919061457d565b60405180910390a36040518381526000906001600160a01b0386169060008051602061478e833981519152906020016109bc565b60008184841115612e275760405162461bcd60e51b815260040161111f9190613957565b505050900390565b6001600160a01b038516612e5657604051630d24315760e01b815260040160405180910390fd5b612e60858561356c565b612e70866000878786868961330c565b846001600160a01b0316866001600160a01b03167f2fe5be0146f74c5bce36c0b80911af6c7d86ff27e89d5cfa61fc681327954e5d868585604051612eb79392919061457d565b60405180910390a36040518481526001600160a01b0386169060009060008051602061478e833981519152906020015b60405180910390a3505050505050565b336001600160a01b03821603612f625760405162461bcd60e51b815260206004820152602a60248201527f4552433737374f70657261746f72733a207265766f6b696e672073656c662061604482015269399037b832b930ba37b960b11b606482015260840161111f565b6001600160a01b038116600090815260018401602052604090205460ff1615612fbc576001600160a01b0380831660009081526003850160209081526040808320938516835292905220805460ff19166001179055505050565b6001600160a01b03918216600090815260029390930160209081526040808520929093168452529020805460ff19169055565b600e54600090819081906012600160a01b90910460ff16101561304e57600e5461302490600160a01b900460ff1660126145a8565b61302f90600a6146a5565b905061303b81856146b4565b925061304781846146d6565b91506130a5565b600e546012600160a01b90910460ff16111561309e57600e5461307d90601290600160a01b900460ff166145a8565b61308890600a6146a5565b905061309481856146d6565b92508391506130a5565b8391508192505b50915091565b6040516001600160a01b03831660248201526044810182905261130d90849063a9059cbb60e01b906064015b60408051601f198184030181529190526020810180516001600160e01b03166001600160e01b0319909316929092179091526135c6565b613121858561311c866124b9565b613698565b836001600160a01b0316856001600160a01b0316876001600160a01b03167f06b541ddaa720db2b10a4d0cdac39b8d360425fc073085fac19bc826146779878686866040516131729392919061457d565b60405180910390a4836001600160a01b0316856001600160a01b031660008051602061478e83398151915285604051612ee791815260200190565b6040516001600160a01b03808516602483015283166044820152606481018290526113d29085906323b872dd60e01b906084016130d7565b60405163555ddc6560e11b81526001600160a01b03861660048201527f29ddb589b1fb5fc7cf394961c1adf5f8c6454761adf795e67fe149f658abe8956024820152600090731820a4b7618bde71dce8cdc73aab6c95905fad249063aabbb8ca90604401602060405180830381865afa158015613266573d6000803e3d6000fd5b505050506040513d601f19601f8201168201806040525081019061328a9190614560565b90506001600160a01b0381161561120457604051633ad5cbc160e11b81526001600160a01b038216906375ab9782906132d1908a908a908a908a908a908a906004016146ed565b600060405180830381600087803b1580156132eb57600080fd5b505af11580156132ff573d6000803e3d6000fd5b5050505050505050505050565b60405163555ddc6560e11b81526001600160a01b03861660048201527fb281fc8c12954d22544db45de3159a39272895b169a852b314f9cc762e44c53b6024820152600090731820a4b7618bde71dce8cdc73aab6c95905fad249063aabbb8ca90604401602060405180830381865afa15801561338d573d6000803e3d6000fd5b505050506040513d601f19601f820116820180604052508101906133b19190614560565b90506001600160a01b0381161561342d576040516223de2960e01b81526001600160a01b038216906223de29906133f6908b908b908b908b908b908b906004016146ed565b600060405180830381600087803b15801561341057600080fd5b505af1158015613424573d6000803e3d6000fd5b505050506114d0565b81156114d0576001600160a01b0386163b156114d05760405163fe737d0560e01b815260040160405180910390fd5b60006134e4837f00000000000000000000000000000000000000000000000000000000000000006001600160a01b031663bbe4fd506040518163ffffffff1660e01b8152600401602060405180830381865afa1580156134c0573d6000803e3d6000fd5b505050506040513d601f19601f8201168201806040525081019061080a91906142b8565b505090506134f1826124b9565b8112156135115760405163043b37d160e21b815260040160405180910390fd5b61351a826124b9565b6001600160a01b03841660009081526002602052604090205461353d9190614265565b6001600160a01b0384166000908152600260205260409020556003546135649083906144f0565b600355505050565b613575816124b9565b6001600160a01b038316600090815260026020526040902054613598919061423d565b6001600160a01b0383166000908152600260205260409020556003546135bf908290614382565b6003555050565b600061361b826040518060400160405280602081526020017f5361666545524332303a206c6f772d6c6576656c2063616c6c206661696c6564815250856001600160a01b03166137979092919063ffffffff16565b80519091501561130d578080602001905181019061363991906141d8565b61130d5760405162461bcd60e51b815260206004820152602a60248201527f5361666545524332303a204552433230206f7065726174696f6e20646964206e6044820152691bdd081cdd58d8d9595960b21b606482015260840161111f565b60006136fc847f00000000000000000000000000000000000000000000000000000000000000006001600160a01b031663bbe4fd506040518163ffffffff1660e01b8152600401602060405180830381865afa1580156134c0573d6000803e3d6000fd5b505090508181121561372157604051632f4cb94160e01b815260040160405180910390fd5b6001600160a01b038416600090815260026020526040902054613745908390614265565b6001600160a01b03808616600090815260026020526040808220939093559085168152205461377590839061423d565b6001600160a01b03909316600090815260026020526040902092909255505050565b6060610dfe848460008585600080866001600160a01b031685876040516137be9190614747565b60006040518083038185875af1925050503d80600081146137fb576040519150601f19603f3d011682016040523d82523d6000602084013e613800565b606091505b50915091506138118783838761381c565b979650505050505050565b6060831561388b578251600003613884576001600160a01b0385163b6138845760405162461bcd60e51b815260206004820152601d60248201527f416464726573733a2063616c6c20746f206e6f6e2d636f6e7472616374000000604482015260640161111f565b5081610dfe565b610dfe83838151156138a05781518083602001fd5b8060405162461bcd60e51b815260040161111f9190613957565b6020808252825182820181905260009190848201906040850190845b818110156138fb5783516001600160a01b0316835292840192918401916001016138d6565b50909695505050505050565b60005b8381101561392257818101518382015260200161390a565b50506000910152565b60008151808452613943816020860160208601613907565b601f01601f19169290920160200192915050565b60208152600061155e602083018461392b565b6001600160a01b0381168114610a0e57600080fd5b60008083601f84011261399157600080fd5b5081356001600160401b038111156139a857600080fd5b6020830191508360208260051b85010111156139c357600080fd5b9250929050565b600080600080606085870312156139e057600080fd5b84356139eb8161396a565b93506020850135925060408501356001600160401b03811115613a0d57600080fd5b613a198782880161397f565b95989497509550505050565b60008060408385031215613a3857600080fd5b8235613a438161396a565b946020939093013593505050565b600060208284031215613a6357600080fd5b5035919050565b600080600060408486031215613a7f57600080fd5b8335925060208401356001600160401b03811115613a9c57600080fd5b613aa88682870161397f565b9497909650939450505050565b60008060008060808587031215613acb57600080fd5b8435613ad68161396a565b93506020850135613ae68161396a565b92506040850135613af68161396a565b9396929550929360600135925050565b634e487b7160e01b600052604160045260246000fd5b604051601f8201601f191681016001600160401b0381118282101715613b4457613b44613b06565b604052919050565b600082601f830112613b5d57600080fd5b81356001600160401b03811115613b7657613b76613b06565b613b89601f8201601f1916602001613b1c565b818152846020838601011115613b9e57600080fd5b816020850160208301376000918101602001919091529392505050565b8015158114610a0e57600080fd5b600080600080600080600060e0888a031215613be457600080fd5b8735965060208801356001600160401b03811115613c0157600080fd5b613c0d8a828b01613b4c565b9650506040880135613c1e8161396a565b94506060880135613c2e81613bbb565b93506080880135613c3e8161396a565b9699959850939692959460a0840135945060c09093013592915050565b600080600060608486031215613c7057600080fd5b8335613c7b8161396a565b92506020840135613c8b8161396a565b929592945050506040919091013590565b60008060408385031215613caf57600080fd5b50508035926020909101359150565b600060208284031215613cd057600080fd5b813561155e8161396a565b60008083601f840112613ced57600080fd5b5081356001600160401b03811115613d0457600080fd5b6020830191508360208285010111156139c357600080fd5b60008060008060008060808789031215613d3557600080fd5b8635613d408161396a565b9550602087013560ff81168114613d5657600080fd5b945060408701356001600160401b0380821115613d7257600080fd5b613d7e8a838b01613cdb565b90965094506060890135915080821115613d9757600080fd5b50613da489828a01613cdb565b979a9699509497509295939492505050565b60008060008060808587031215613dcc57600080fd5b8435613dd78161396a565b93506020850135613de78161396a565b93969395505050506040820135916060013590565b6020808252825182820181905260009190848201906040850190845b818110156138fb57835183529284019291840191600101613e18565b60008060008060608587031215613e4a57600080fd5b8435613e558161396a565b93506020850135925060408501356001600160401b03811115613e7757600080fd5b613a1987828801613cdb565b600080600080600080600060a0888a031215613e9e57600080fd5b8735613ea98161396a565b96506020880135613eb98161396a565b95506040880135945060608801356001600160401b0380821115613edc57600080fd5b613ee88b838c01613cdb565b909650945060808a0135915080821115613f0157600080fd5b50613f0e8a828b01613cdb565b989b979a50959850939692959293505050565b600080600060608486031215613f3657600080fd5b8335613f418161396a565b95602085013595506040909401359392505050565b600080600060608486031215613f6b57600080fd5b8335613f768161396a565b92506020840135915060408401356001600160401b03811115613f9857600080fd5b613fa486828701613b4c565b9150509250925092565b60008060008060808587031215613fc457600080fd5b8435613fcf8161396a565b93506020850135613fdf8161396a565b92506040850135915060608501356001600160401b0381111561400157600080fd5b61400d87828801613b4c565b91505092959194509250565b6000806040838503121561402c57600080fd5b82356140378161396a565b915060208301356140478161396a565b809150509250929050565b6000806000806000806080878903121561406b57600080fd5b86356140768161396a565b95506020870135945060408701356001600160401b0380821115613d7257600080fd5b6000806000604084860312156140ae57600080fd5b8335925060208401356001600160401b038111156140cb57600080fd5b613aa886828701613cdb565b600181811c908216806140eb57607f821691505b60208210810361410b57634e487b7160e01b600052602260045260246000fd5b50919050565b6080808252600e908201526d41677265656d656e74537461746560901b60a08201526001600160a01b039384166020820152919092166040820152606081019190915260c00190565b6060808252600d908201526c41677265656d656e744461746160981b60808201526001600160a01b03929092166020830152604082015260a00190565b838152604060208201819052810182905260006001600160fb1b038311156141be57600080fd5b8260051b8085606085013791909101606001949350505050565b6000602082840312156141ea57600080fd5b815161155e81613bbb565b634e487b7160e01b600052601160045260246000fd5b6000600160ff1b8201614220576142206141f5565b5060000390565b634e487b7160e01b600052600160045260246000fd5b808201828112600083128015821682158216171561425d5761425d6141f5565b505092915050565b8181036000831280158383131683831282161715612b1b57612b1b6141f5565b85815260018060a01b038516602082015283604082015282606082015260a06080820152600061381160a083018461392b565b6000602082840312156142ca57600080fd5b5051919050565b600060208083850312156142e457600080fd5b82516001600160401b03808211156142fb57600080fd5b818501915085601f83011261430f57600080fd5b81518181111561432157614321613b06565b8060051b9150614332848301613b1c565b818152918301840191848101908884111561434c57600080fd5b938501935b8385101561437657845192506143668361396a565b8282529385019390850190614351565b98975050505050505050565b808201808211156109dc576109dc6141f5565b6020808252602e908201527f496e697469616c697a61626c653a20636f6e747261637420697320616c72656160408201526d191e481a5b9a5d1a585b1a5e995960921b606082015260800190565b601f82111561130d57600081815260208120601f850160051c8101602086101561440a5750805b601f850160051c820191505b8181101561442957828155600101614416565b505050505050565b6001600160401b0383111561444857614448613b06565b61445c8361445683546140d7565b836143e3565b6000601f84116001811461449057600085156144785750838201355b600019600387901b1c1916600186901b178355610b49565b600083815260209020601f19861690835b828110156144c157868501358255602094850194600190920191016144a1565b50868210156144de5760001960f88860031b161c19848701351681555b505060018560011b0183555050505050565b818103818111156109dc576109dc6141f5565b634e487b7160e01b600052603260045260246000fd5b60008060006060848603121561452e57600080fd5b8351925060208401519150604084015190509250925092565b600060018201614559576145596141f5565b5060010190565b60006020828403121561457257600080fd5b815161155e8161396a565b838152606060208201526000614596606083018561392b565b828103604084015261134d818561392b565b60ff82811682821603908111156109dc576109dc6141f5565b600181815b808511156145fc5781600019048211156145e2576145e26141f5565b808516156145ef57918102915b93841c93908002906145c6565b509250929050565b600082614613575060016109dc565b81614620575060006109dc565b816001811461463657600281146146405761465c565b60019150506109dc565b60ff841115614651576146516141f5565b50506001821b6109dc565b5060208310610133831016604e8410600b841016171561467f575081810a6109dc565b61468983836145c1565b806000190482111561469d5761469d6141f5565b029392505050565b600061155e60ff841683614604565b6000826146d157634e487b7160e01b600052601260045260246000fd5b500490565b80820281158282048414176109dc576109dc6141f5565b6001600160a01b0387811682528681166020830152851660408201526060810184905260c0608082018190526000906147289083018561392b565b82810360a084015261473a818561392b565b9998505050505050505050565b60008251614759818460208701613907565b919091019291505056fe5375706572546f6b656e3a2064656372656173656420616c6c6f77616e63652062656c6f77207a65726fddf252ad1be2c89b69c2b068fc378daa952ba7f163c4a11628f55a4df523b3ef5375706572546f6b656e3a207472616e7366657220616d6f756e74206578636565647320616c6c6f77616e6365a264697066735822122018896e73725749db0649d6a21fa90ca3d3f6f1d86d9d32a89cfb2fc7f3456a3d64736f6c63430008130033",
  "immutableReferences": {
    "45251": [
      {
        "length": 32,
        "start": 1118
      },
      {
        "length": 32,
        "start": 2806
      },
      {
        "length": 32,
        "start": 2917
      },
      {
        "length": 32,
        "start": 3592
      },
      {
        "length": 32,
        "start": 3875
      },
      {
        "length": 32,
        "start": 4082
      },
      {
        "length": 32,
        "start": 4676
      },
      {
        "length": 32,
        "start": 4749
      },
      {
        "length": 32,
        "start": 5082
      },
      {
        "length": 32,
        "start": 5485
      },
      {
        "length": 32,
        "start": 6467
      },
      {
        "length": 32,
        "start": 6662
      },
      {
        "length": 32,
        "start": 6814
      },
      {
        "length": 32,
        "start": 6918
      },
      {
        "length": 32,
        "start": 7054
      },
      {
        "length": 32,
        "start": 9081
      },
      {
        "length": 32,
        "start": 9232
      },
      {
        "length": 32,
        "start": 13412
      },
      {
        "length": 32,
        "start": 13984
      }
    ]
  },
  "source": "// SPDX-License-Identifier: AGPLv3\npragma solidity 0.8.19;\n\nimport { UUPSProxiable } from \"../upgradability/UUPSProxiable.sol\";\n\nimport {\n    ISuperfluid,\n    ISuperfluidGovernance,\n    ISuperToken,\n    ISuperAgreement,\n    IERC20,\n    IERC777,\n    TokenInfo\n} from \"../interfaces/superfluid/ISuperfluid.sol\";\nimport { ISuperfluidToken, SuperfluidToken } from \"./SuperfluidToken.sol\";\n\nimport { ERC777Helper } from \"../libs/ERC777Helper.sol\";\n\nimport { SafeERC20 } from \"@openzeppelin/contracts/token/ERC20/utils/SafeERC20.sol\";\nimport { SafeMath } from \"@openzeppelin/contracts/utils/math/SafeMath.sol\";\nimport { SafeCast } from \"@openzeppelin/contracts/utils/math/SafeCast.sol\";\nimport { IERC777Recipient } from \"@openzeppelin/contracts/token/ERC777/IERC777Recipient.sol\";\nimport { IERC777Sender } from \"@openzeppelin/contracts/token/ERC777/IERC777Sender.sol\";\nimport { Address } from \"@openzeppelin/contracts/utils/Address.sol\";\n\n/**\n * @title Superfluid's super token implementation\n *\n * @author Superfluid\n */\ncontract SuperToken is\n    UUPSProxiable,\n    SuperfluidToken,\n    ISuperToken\n{\n\n    using SafeMath for uint256;\n    using SafeCast for uint256;\n    using Address for address;\n    using ERC777Helper for ERC777Helper.Operators;\n    using SafeERC20 for IERC20;\n\n    uint8 constant private _STANDARD_DECIMALS = 18;\n\n    /* WARNING: NEVER RE-ORDER VARIABLES! Including the base contracts.\n       Always double-check that new\n       variables are added APPEND-ONLY. Re-ordering variables can\n       permanently BREAK the deployed proxy contract. */\n\n    /// @dev The underlying ERC20 token\n    IERC20 internal _underlyingToken;\n\n    /// @dev Decimals of the underlying token\n    uint8 internal _underlyingDecimals;\n\n    /// @dev TokenInfo Name property\n    string internal _name;\n\n    /// @dev TokenInfo Symbol property\n    string internal _symbol;\n\n    /// @dev ERC20 Allowances Storage\n    mapping(address => mapping (address => uint256)) internal _allowances;\n\n    /// @dev ERC777 operators support data\n    ERC777Helper.Operators internal _operators;\n\n    // NOTE: for future compatibility, these are reserved solidity slots\n    // The sub-class of SuperToken solidity slot will start after _reserve22\n\n    // NOTE: Whenever modifying the storage layout here it is important to update the validateStorageLayout\n    // function in its respective mock contract to ensure that it doesn't break anything or lead to unexpected\n    // behaviors/layout when upgrading\n\n    uint256 internal _reserve22;\n    uint256 private _reserve23;\n    uint256 private _reserve24;\n    uint256 private _reserve25;\n    uint256 private _reserve26;\n    uint256 private _reserve27;\n    uint256 private _reserve28;\n    uint256 private _reserve29;\n    uint256 private _reserve30;\n    uint256 internal _reserve31;\n\n    constructor(\n        ISuperfluid host\n    )\n        SuperfluidToken(host)\n        // solhint-disable-next-line no-empty-blocks\n    {\n    }\n\n    function initialize(\n        IERC20 underlyingToken,\n        uint8 underlyingDecimals,\n        string calldata n,\n        string calldata s\n    )\n        external override\n        initializer // OpenZeppelin Initializable\n    {\n        _underlyingToken = underlyingToken;\n        _underlyingDecimals = underlyingDecimals;\n\n        _name = n;\n        _symbol = s;\n\n        // register interfaces\n        ERC777Helper.register(address(this));\n\n        // help tools like explorers detect the token contract\n        emit Transfer(address(0), address(0), 0);\n    }\n\n    function proxiableUUID() public pure override returns (bytes32) {\n        return keccak256(\"org.superfluid-finance.contracts.SuperToken.implementation\");\n    }\n\n    function updateCode(address newAddress) external override {\n        if (msg.sender != address(_host)) revert SUPER_TOKEN_ONLY_HOST();\n        UUPSProxiable._updateCodeAddress(newAddress);\n    }\n\n    /**************************************************************************\n     * ERC20 Token Info\n     *************************************************************************/\n\n    function name() external view override returns (string memory) {\n        return _name;\n    }\n\n    function symbol() external view override returns (string memory) {\n        return _symbol;\n    }\n\n    function decimals() external pure override returns (uint8) {\n        return _STANDARD_DECIMALS;\n    }\n\n    /**************************************************************************\n     * (private) Token Logics\n     *************************************************************************/\n\n    /**\n     * @notice in the original openzeppelin implementation, transfer() and transferFrom()\n     * did invoke the send and receive hooks, as required by ERC777.\n     * This hooks were removed from super tokens for ERC20 transfers in order to protect\n     * interfacing contracts which don't expect invocations of ERC20 transfers to potentially reenter.\n     * Interactions relying on ERC777 hooks need to use the ERC777 interface.\n     * For more context, see https://github.com/superfluid-finance/protocol-monorepo/wiki/About-ERC-777\n     */\n    function _transferFrom(address spender, address holder, address recipient, uint amount)\n        internal returns (bool)\n    {\n        if (holder == address(0)) {\n            revert SUPER_TOKEN_TRANSFER_FROM_ZERO_ADDRESS();\n        }\n        if (recipient == address(0)) {\n            revert SUPER_TOKEN_TRANSFER_TO_ZERO_ADDRESS();\n        }\n        address operator = msg.sender;\n\n        _move(operator, holder, recipient, amount, \"\", \"\");\n\n        if (spender != holder) {\n            _approve(\n                holder,\n                spender,\n                _allowances[holder][spender].sub(amount, \"SuperToken: transfer amount exceeds allowance\"));\n        }\n\n        return true;\n    }\n\n    /**\n     * @dev Send tokens\n     * @param operator address operator address\n     * @param from address token holder address\n     * @param to address recipient address\n     * @param amount uint256 amount of tokens to transfer\n     * @param userData bytes extra information provided by the token holder (if any)\n     * @param operatorData bytes extra information provided by the operator (if any)\n     * @param requireReceptionAck if true, contract recipients are required to implement ERC777TokensRecipient\n     */\n    function _send(\n        address operator,\n        address from,\n        address to,\n        uint256 amount,\n        bytes memory userData,\n        bytes memory operatorData,\n        bool requireReceptionAck\n    )\n        private\n    {\n        if (from == address(0)) {\n            revert SUPER_TOKEN_TRANSFER_FROM_ZERO_ADDRESS();\n        }\n        if (to == address(0)) {\n            revert SUPER_TOKEN_TRANSFER_TO_ZERO_ADDRESS();\n        }\n\n        _callTokensToSend(operator, from, to, amount, userData, operatorData);\n\n        _move(operator, from, to, amount, userData, operatorData);\n\n        _callTokensReceived(operator, from, to, amount, userData, operatorData, requireReceptionAck);\n    }\n\n    function _move(\n        address operator,\n        address from,\n        address to,\n        uint256 amount,\n        bytes memory userData,\n        bytes memory operatorData\n    )\n        private\n    {\n        SuperfluidToken._move(from, to, amount.toInt256());\n\n        emit Sent(operator, from, to, amount, userData, operatorData);\n        emit Transfer(from, to, amount);\n    }\n\n    /**\n     * @dev Creates `amount` tokens and assigns them to `account`, increasing\n     * the total supply.\n     *\n     * If a send hook is registered for `account`, the corresponding function\n     * will be called with `operator`, `data` and `operatorData`.\n     *\n     * See {IERC777Sender} and {IERC777Recipient}.\n     *\n     * Emits {Minted} and {IERC20-Transfer} events.\n     *\n     * Requirements\n     *\n     * - `account` cannot be the zero address.\n     * - if `account` is a contract, it must implement the {IERC777Recipient}\n     * interface.\n     */\n    function _mint(\n        address operator,\n        address account,\n        uint256 amount,\n        bool requireReceptionAck,\n        bytes memory userData,\n        bytes memory operatorData\n    )\n        internal\n    {\n        if (account == address(0)) {\n            revert SUPER_TOKEN_MINT_TO_ZERO_ADDRESS();\n        }\n\n        SuperfluidToken._mint(account, amount);\n\n        _callTokensReceived(operator, address(0), account, amount, userData, operatorData, requireReceptionAck);\n\n        emit Minted(operator, account, amount, userData, operatorData);\n        emit Transfer(address(0), account, amount);\n    }\n\n    /**\n     * @dev Burn tokens\n     * @param from address token holder address\n     * @param amount uint256 amount of tokens to burn\n     * @param userData bytes extra information provided by the token holder\n     * @param operatorData bytes extra information provided by the operator (if any)\n     */\n    function _burn(\n        address operator,\n        address from,\n        uint256 amount,\n        bytes memory userData,\n        bytes memory operatorData\n    )\n        internal\n    {\n        if (from == address(0)) {\n            revert SUPER_TOKEN_BURN_FROM_ZERO_ADDRESS();\n        }\n\n        _callTokensToSend(operator, from, address(0), amount, userData, operatorData);\n\n        SuperfluidToken._burn(from, amount);\n\n        emit Burned(operator, from, amount, userData, operatorData);\n        emit Transfer(from, address(0), amount);\n    }\n\n    /**\n     * @notice Sets `amount` as the allowance of `spender` over the `account`s tokens.\n     *\n     * This is internal function is equivalent to `approve`, and can be used to\n     * e.g. set automatic allowances for certain subsystems, etc.\n     *\n     * Emits an {Approval} event.\n     *\n     * Requirements:\n     *\n     * - `account` cannot be the zero address.\n     * - `spender` cannot be the zero address.\n     */\n    function _approve(address account, address spender, uint256 amount)\n        internal\n    {\n        if (account == address(0)) {\n            revert SUPER_TOKEN_APPROVE_FROM_ZERO_ADDRESS();\n        }\n        if (spender == address(0)) {\n            revert SUPER_TOKEN_APPROVE_TO_ZERO_ADDRESS();\n        }\n\n        _allowances[account][spender] = amount;\n        emit Approval(account, spender, amount);\n    }\n\n    /**\n     * @dev Call from.tokensToSend() if the interface is registered\n     * @param operator address operator requesting the transfer\n     * @param from address token holder address\n     * @param to address recipient address\n     * @param amount uint256 amount of tokens to transfer\n     * @param userData bytes extra information provided by the token holder (if any)\n     * @param operatorData bytes extra information provided by the operator (if any)\n     */\n    function _callTokensToSend(\n        address operator,\n        address from,\n        address to,\n        uint256 amount,\n        bytes memory userData,\n        bytes memory operatorData\n    )\n        private\n    {\n        address implementer = ERC777Helper._ERC1820_REGISTRY.getInterfaceImplementer(\n            from, ERC777Helper._TOKENS_SENDER_INTERFACE_HASH);\n        if (implementer != address(0)) {\n            IERC777Sender(implementer).tokensToSend(operator, from, to, amount, userData, operatorData);\n        }\n    }\n\n    /**\n     * @dev Call to.tokensReceived() if the interface is registered. Reverts if the recipient is a contract but\n     * tokensReceived() was not registered for the recipient\n     * @param operator address operator requesting the transfer\n     * @param from address token holder address\n     * @param to address recipient address\n     * @param amount uint256 amount of tokens to transfer\n     * @param userData bytes extra information provided by the token holder (if any)\n     * @param operatorData bytes extra information provided by the operator (if any)\n     * @param requireReceptionAck if true, contract recipients are required to implement ERC777TokensRecipient\n     */\n    function _callTokensReceived(\n        address operator,\n        address from,\n        address to,\n        uint256 amount,\n        bytes memory userData,\n        bytes memory operatorData,\n        bool requireReceptionAck\n    )\n        private\n    {\n        address implementer = ERC777Helper._ERC1820_REGISTRY.getInterfaceImplementer(\n            to, ERC777Helper._TOKENS_RECIPIENT_INTERFACE_HASH);\n        if (implementer != address(0)) {\n            IERC777Recipient(implementer).tokensReceived(operator, from, to, amount, userData, operatorData);\n        } else if (requireReceptionAck) {\n            if (to.isContract()) revert SUPER_TOKEN_NOT_ERC777_TOKENS_RECIPIENT();\n        }\n    }\n\n    /**************************************************************************\n     * ERC20 Implementations\n     *************************************************************************/\n\n    function totalSupply()\n        public view override returns (uint256)\n    {\n        return _totalSupply;\n    }\n\n    function balanceOf(\n        address account\n    )\n        public\n        view\n        override\n        returns(uint256 balance)\n    {\n        // solhint-disable-next-line not-rely-on-time\n        (int256 availableBalance, , ,) = super.realtimeBalanceOfNow(account);\n        return availableBalance < 0 ? 0 : uint256(availableBalance);\n    }\n\n    function transfer(address recipient, uint256 amount)\n        public override returns (bool)\n    {\n        return _transferFrom(msg.sender, msg.sender, recipient, amount);\n    }\n\n    function allowance(address account, address spender)\n        public view override returns (uint256)\n    {\n        return _allowances[account][spender];\n    }\n\n    function approve(address spender, uint256 amount)\n        public override\n        returns (bool)\n    {\n        _approve(msg.sender, spender, amount);\n        return true;\n    }\n\n    function transferFrom(address holder, address recipient, uint256 amount)\n        public override returns (bool)\n    {\n        return _transferFrom(msg.sender, holder, recipient, amount);\n    }\n\n    function increaseAllowance(address spender, uint256 addedValue)\n        public override returns (bool) {\n        _approve(msg.sender, spender, _allowances[msg.sender][spender] + addedValue);\n        return true;\n    }\n\n    function decreaseAllowance(address spender, uint256 subtractedValue)\n        public override returns (bool) {\n        _approve(msg.sender, spender, _allowances[msg.sender][spender].sub(subtractedValue,\n            \"SuperToken: decreased allowance below zero\"));\n        return true;\n    }\n\n    /**************************************************************************\n     * ERC-777 functions\n     *************************************************************************/\n\n    function granularity() external pure override returns (uint256) { return 1; }\n\n    function send(address recipient, uint256 amount, bytes calldata data) external override {\n        _send(msg.sender, msg.sender, recipient, amount, data, \"\", true);\n    }\n\n    function burn(uint256 amount, bytes calldata data) external override {\n        _downgrade(msg.sender, msg.sender, msg.sender, amount, data, \"\");\n    }\n\n    function isOperatorFor(address operator, address tokenHolder) external override view returns (bool) {\n        return _operators.isOperatorFor(operator, tokenHolder);\n    }\n\n    function authorizeOperator(address operator) external override {\n        address holder = msg.sender;\n        _operators.authorizeOperator(holder, operator);\n        emit AuthorizedOperator(operator, holder);\n    }\n\n    function revokeOperator(address operator) external override {\n        address holder = msg.sender;\n        _operators.revokeOperator(holder, operator);\n        emit RevokedOperator(operator, holder);\n    }\n\n    function defaultOperators() external override view returns (address[] memory) {\n        return ERC777Helper.defaultOperators(_operators);\n    }\n\n    function operatorSend(\n        address sender,\n        address recipient,\n        uint256 amount,\n        bytes calldata data,\n        bytes calldata operatorData\n    ) external override {\n        address operator = msg.sender;\n        if (!_operators.isOperatorFor(operator, sender)) revert SUPER_TOKEN_CALLER_IS_NOT_OPERATOR_FOR_HOLDER();\n        _send(operator, sender, recipient, amount, data, operatorData, true);\n    }\n\n    function operatorBurn(\n        address account,\n        uint256 amount,\n        bytes calldata data,\n        bytes calldata operatorData\n    ) external override {\n        address operator = msg.sender;\n        if (!_operators.isOperatorFor(operator, account)) revert SUPER_TOKEN_CALLER_IS_NOT_OPERATOR_FOR_HOLDER();\n        _downgrade(operator, account, account, amount, data, operatorData);\n    }\n\n    function _setupDefaultOperators(address[] memory operators) internal {\n        _operators.setupDefaultOperators(operators);\n    }\n\n    /**************************************************************************\n     * SuperToken custom token functions\n     *************************************************************************/\n\n    function selfMint(\n        address account,\n        uint256 amount,\n        bytes memory userData\n    )\n        external override\n        onlySelf\n    {\n        _mint(msg.sender, account, amount,\n            false /* requireReceptionAck */, userData, new bytes(0));\n    }\n\n    function selfBurn(\n       address account,\n       uint256 amount,\n       bytes memory userData\n    )\n       external override\n       onlySelf\n    {\n       _burn(msg.sender, account, amount, userData, new bytes(0));\n    }\n\n    function selfApproveFor(\n        address account,\n        address spender,\n        uint256 amount\n    )\n        external override\n        onlySelf\n    {\n        _approve(account, spender, amount);\n    }\n\n    function selfTransferFrom(\n        address holder,\n        address spender,\n        address recipient,\n        uint256 amount\n    )\n        external override\n        onlySelf\n    {\n        _transferFrom(spender, holder, recipient, amount);\n    }\n\n    /**************************************************************************\n     * SuperToken extra functions\n     *************************************************************************/\n\n    function transferAll(address recipient)\n        external override\n    {\n        _transferFrom(msg.sender, msg.sender, recipient, balanceOf(msg.sender));\n    }\n\n    /**************************************************************************\n     * ERC20 wrapping\n     *************************************************************************/\n\n    /// @dev ISuperfluidGovernance.getUnderlyingToken implementation\n    function getUnderlyingToken() external view override returns(address) {\n        return address(_underlyingToken);\n    }\n\n    /// @dev ISuperToken.upgrade implementation\n    function upgrade(uint256 amount) external override {\n        _upgrade(msg.sender, msg.sender, msg.sender, amount, \"\", \"\");\n    }\n\n    /// @dev ISuperToken.upgradeTo implementation\n    function upgradeTo(address to, uint256 amount, bytes calldata data) external override {\n        _upgrade(msg.sender, msg.sender, to, amount, data, \"\");\n    }\n\n    /// @dev ISuperToken.downgrade implementation\n    function downgrade(uint256 amount) external override {\n        _downgrade(msg.sender, msg.sender, msg.sender, amount, \"\", \"\");\n    }\n\n    /// @inheritdoc ISuperToken\n    function downgradeTo(address to, uint256 amount) external override {\n        _downgrade(msg.sender, msg.sender, to, amount, \"\", \"\");\n    }\n\n    function _upgrade(\n        address operator,\n        address account,\n        address to,\n        uint256 amount,\n        bytes memory userData,\n        bytes memory operatorData\n    ) private {\n        if (address(_underlyingToken) == address(0)) revert SUPER_TOKEN_NO_UNDERLYING_TOKEN();\n\n        (uint256 underlyingAmount, uint256 adjustedAmount) = _toUnderlyingAmount(amount);\n\n        uint256 amountBefore = _underlyingToken.balanceOf(address(this));\n        _underlyingToken.safeTransferFrom(account, address(this), underlyingAmount);\n        uint256 amountAfter = _underlyingToken.balanceOf(address(this));\n        uint256 actualUpgradedAmount = amountAfter - amountBefore;\n        if (underlyingAmount != actualUpgradedAmount) revert SUPER_TOKEN_INFLATIONARY_DEFLATIONARY_NOT_SUPPORTED();\n\n        _mint(operator, to, adjustedAmount,\n            // if `userData.length` than 0, we requireReceptionAck\n            userData.length != 0, userData, operatorData);\n\n        emit TokenUpgraded(to, adjustedAmount);\n    }\n\n    function _downgrade(\n        address operator, // the account executing the transaction\n        address account,  // the account whose super tokens we are burning\n        address to,       // the account receiving the underlying tokens\n        uint256 amount,\n        bytes memory data,\n        bytes memory operatorData) private {\n        if (address(_underlyingToken) == address(0)) revert SUPER_TOKEN_NO_UNDERLYING_TOKEN();\n\n        (uint256 underlyingAmount, uint256 adjustedAmount) = _toUnderlyingAmount(amount);\n\n         // _burn will check the (actual) amount availability again\n         _burn(operator, account, adjustedAmount, data, operatorData);\n\n        uint256 amountBefore = _underlyingToken.balanceOf(address(this));\n        _underlyingToken.safeTransfer(to, underlyingAmount);\n        uint256 amountAfter = _underlyingToken.balanceOf(address(this));\n        uint256 actualDowngradedAmount = amountBefore - amountAfter;\n        if (underlyingAmount != actualDowngradedAmount) revert SUPER_TOKEN_INFLATIONARY_DEFLATIONARY_NOT_SUPPORTED();\n\n        emit TokenDowngraded(account, adjustedAmount);\n    }\n\n    /**\n     * @dev Handle decimal differences between underlying token and super token\n     */\n    function _toUnderlyingAmount(uint256 amount)\n        private view\n        returns (uint256 underlyingAmount, uint256 adjustedAmount)\n    {\n        uint256 factor;\n        if (_underlyingDecimals < _STANDARD_DECIMALS) {\n            // if underlying has less decimals\n            // one can upgrade less \"granualar\" amount of tokens\n            factor = 10 ** (_STANDARD_DECIMALS - _underlyingDecimals);\n            underlyingAmount = amount / factor;\n            // remove precision errors\n            adjustedAmount = underlyingAmount * factor;\n        } else if (_underlyingDecimals > _STANDARD_DECIMALS) {\n            // if underlying has more decimals\n            // one can upgrade more \"granualar\" amount of tokens\n            factor = 10 ** (_underlyingDecimals - _STANDARD_DECIMALS);\n            underlyingAmount = amount * factor;\n            adjustedAmount = amount;\n        } else {\n            underlyingAmount = adjustedAmount = amount;\n        }\n    }\n\n    /**************************************************************************\n     * Superfluid Batch Operations\n     *************************************************************************/\n\n    function operationApprove(\n        address account,\n        address spender,\n        uint256 amount\n    )\n        external override\n        onlyHost\n    {\n        _approve(account, spender, amount);\n    }\n\n    function operationIncreaseAllowance(\n        address account,\n        address spender,\n        uint256 addedValue\n    )\n        external override\n        onlyHost\n    {\n        _approve(account, spender, _allowances[account][spender] + addedValue);\n    }\n\n    function operationDecreaseAllowance(\n        address account,\n        address spender,\n        uint256 subtractedValue\n    ) \n        external override\n        onlyHost\n    {\n        _approve(account, spender, _allowances[account][spender].sub(subtractedValue,\n            \"SuperToken: decreased allowance below zero\"));\n    }\n\n    function operationTransferFrom(\n        address account,\n        address spender,\n        address recipient,\n        uint256 amount\n    )\n        external override\n        onlyHost\n    {\n        _transferFrom(account, spender, recipient, amount);\n    }\n\n    function operationSend(\n        address spender,\n        address recipient,\n        uint256 amount,\n        bytes memory userData\n    ) \n        external override\n        onlyHost\n    {\n        _send(msg.sender, spender, recipient, amount, userData, \"\", true);\n    }\n\n    function operationUpgrade(address account, uint256 amount)\n        external override\n        onlyHost\n    {\n        _upgrade(msg.sender, account, account, amount, \"\", \"\");\n    }\n\n    function operationDowngrade(address account, uint256 amount)\n        external override\n        onlyHost\n    {\n        _downgrade(msg.sender, account, account, amount, \"\", \"\");\n    }\n\n    /**************************************************************************\n    * Modifiers\n    *************************************************************************/\n\n    modifier onlySelf() {\n        if (msg.sender != address(this)) revert SUPER_TOKEN_ONLY_SELF();\n        _;\n    }\n\n}\n",
  "sourcePath": "/Users/0xdavinchee/Documents/dev/superfluid/protocol-monorepo/packages/ethereum-contracts/contracts/superfluid/SuperToken.sol",
  "compiler": {
    "name": "solc",
    "version": "0.8.19+commit.7dd6d404.Emscripten.clang"
  },
  "schemaVersion": "3.4.11",
  "updatedAt": "2023-03-20T10:55:51.207Z",
  "devdoc": {
    "author": "Superfluid",
    "events": {
      "AgreementCreated(address,bytes32,bytes32[])": {
        "details": "Agreement created event",
        "params": {
          "agreementClass": "Contract address of the agreement",
          "data": "Agreement data",
          "id": "Agreement ID"
        }
      },
      "AgreementLiquidated(address,bytes32,address,address,uint256)": {
        "custom:deprecated": "Use AgreementLiquidatedV2 instead",
        "details": "Agreement liquidation event (DEPRECATED BY AgreementLiquidatedBy)",
        "params": {
          "agreementClass": "Contract address of the agreement",
          "id": "Agreement ID",
          "penaltyAccount": "Account of the agreement to be penalized",
          "rewardAccount": "Account that collect the reward",
          "rewardAmount": "Amount of liquidation reward"
        }
      },
      "AgreementLiquidatedBy(address,address,bytes32,address,address,uint256,uint256)": {
        "custom:deprecated": "Use AgreementLiquidatedV2 instead",
        "custom:note": " Reward account rule: - if bailout is equal to 0, then   - the bondAccount will get the rewardAmount,   - the penaltyAccount will pay for the rewardAmount. - if bailout is larger than 0, then   - the liquidatorAccount will get the rewardAmouont,   - the bondAccount will pay for both the rewardAmount and bailoutAmount,   - the penaltyAccount will pay for the rewardAmount while get the bailoutAmount.",
        "details": "Agreement liquidation event (DEPRECATED BY AgreementLiquidatedV2)",
        "params": {
          "agreementClass": "Contract address of the agreement",
          "bailoutAmount": "Amount of liquidation bailouot",
          "bondAccount": "Account that collect the reward or bailout accounts",
          "id": "Agreement ID",
          "liquidatorAccount": "Account of the agent that performed the liquidation.",
          "penaltyAccount": "Account of the agreement to be penalized",
          "rewardAmount": "Amount of liquidation reward"
        }
      },
      "AgreementLiquidatedV2(address,bytes32,address,address,address,uint256,int256,bytes)": {
        "custom:note": " Reward account rule: - if the agreement is liquidated during the PIC period   - the rewardAmountReceiver will get the rewardAmount (remaining deposit), regardless of the liquidatorAccount   - the targetAccount will pay for the rewardAmount - if the agreement is liquidated after the PIC period AND the targetAccount is solvent   - the rewardAmountReceiver will get the rewardAmount (remaining deposit)   - the targetAccount will pay for the rewardAmount - if the targetAccount is insolvent   - the liquidatorAccount will get the rewardAmount (single deposit)   - the default reward account (governance) will pay for both the rewardAmount and bailoutAmount   - the targetAccount will receive the bailoutAmount",
        "details": "Agreement liquidation event v2 (including agent account)",
        "params": {
          "agreementClass": "Contract address of the agreement",
          "id": "Agreement ID",
          "liquidationTypeData": "The encoded liquidation type data including the version (how to decode)",
          "liquidatorAccount": "Address of the executor of the liquidation",
          "rewardAmount": "The amount the reward recipient account balance should change by",
          "rewardAmountReceiver": "Account that collects the reward or bails out insolvent accounts",
          "targetAccount": "Account of the stream sender",
          "targetAccountBalanceDelta": "The amount the sender account balance should change by"
        }
      },
      "AgreementStateUpdated(address,address,uint256)": {
        "details": "Agreement account state updated event",
        "params": {
          "account": "Account updated",
          "agreementClass": "Contract address of the agreement",
          "slotId": "slot id of the agreement state"
        }
      },
      "AgreementTerminated(address,bytes32)": {
        "details": "Agreement terminated event",
        "params": {
          "agreementClass": "Contract address of the agreement",
          "id": "Agreement ID"
        }
      },
      "AgreementUpdated(address,bytes32,bytes32[])": {
        "details": "Agreement updated event",
        "params": {
          "agreementClass": "Contract address of the agreement",
          "data": "Agreement data",
          "id": "Agreement ID"
        }
      },
      "Approval(address,address,uint256)": {
        "details": "Emitted when the allowance of a `spender` for an `owner` is set by a call to {approve}. `value` is the new allowance."
      },
      "AuthorizedOperator(address,address)": {
        "details": "Emitted when `operator` is made operator for `tokenHolder`."
      },
      "Bailout(address,uint256)": {
        "custom:deprecated": "Use AgreementLiquidatedV2 instead",
        "details": "System bailout occurred (DEPRECATED BY AgreementLiquidatedBy)",
        "params": {
          "bailoutAccount": "Account that bailout the penalty account",
          "bailoutAmount": "Amount of account bailout"
        }
      },
      "Burned(address,address,uint256,bytes,bytes)": {
        "details": "Emitted when `operator` destroys `amount` tokens from `account`. Note that some additional user `data` and `operatorData` can be logged in the event."
      },
      "Initialized(uint8)": {
        "details": "Triggered when the contract has been initialized or reinitialized."
      },
      "Minted(address,address,uint256,bytes,bytes)": {
        "details": "Emitted when `amount` tokens are created by `operator` and assigned to `to`. Note that some additional user `data` and `operatorData` can be logged in the event."
      },
      "RevokedOperator(address,address)": {
        "details": "Emitted when `operator` is revoked its operator status for `tokenHolder`."
      },
      "TokenDowngraded(address,uint256)": {
        "details": "Token downgrade event",
        "params": {
          "account": "Account whose tokens are downgraded",
          "amount": "Amount of tokens downgraded"
        }
      },
      "TokenUpgraded(address,uint256)": {
        "details": "Token upgrade event",
        "params": {
          "account": "Account where tokens are upgraded to",
          "amount": "Amount of tokens upgraded (in 18 decimals)"
        }
      },
      "Transfer(address,address,uint256)": {
        "details": "Emitted when `value` tokens are moved from one account (`from`) to another (`to`). Note that `value` may be zero."
      }
    },
    "kind": "dev",
    "methods": {
      "approve(address,uint256)": {
        "details": "Sets `amount` as the allowance of `spender` over the caller's tokens.",
        "returns": {
          "_0": "Returns Success a boolean value indicating whether the operation succeeded."
        }
      },
      "authorizeOperator(address)": {
        "details": "Make an account an operator of the caller. See {isOperatorFor}."
      },
      "balanceOf(address)": {
        "details": "Returns the amount of tokens owned by an account (`owner`)."
      },
      "burn(uint256,bytes)": {
        "details": "Destroys `amount` tokens from the caller's account, reducing the total supply and transfers the underlying token to the caller's account. If a send hook is registered for the caller, the corresponding function will be called with `data` and empty `operatorData`. See {IERC777Sender}."
      },
      "createAgreement(bytes32,bytes32[])": {
        "details": "ISuperfluidToken.createAgreement implementation"
      },
      "decimals()": {
        "details": "Returns the number of decimals used to get its user representation. For example, if `decimals` equals `2`, a balance of `505` tokens should be displayed to a user as `5,05` (`505 / 10 ** 2`). Tokens usually opt for a value of 18, imitating the relationship between Ether and Wei. This is the value {ERC20} uses, unless {_setupDecimals} is called."
      },
      "decreaseAllowance(address,uint256)": {
        "details": "Atomically decreases the allowance granted to `spender` by the caller. This is an alternative to {approve} that can be used as a mitigation for problems described in {IERC20-approve}."
      },
      "defaultOperators()": {
        "details": "Returns the list of default operators. These accounts are operators for all token holders, even if {authorizeOperator} was never called on them. This list is immutable, but individual holders may revoke these via {revokeOperator}, in which case {isOperatorFor} will return false."
      },
      "downgrade(uint256)": {
        "details": "ISuperToken.downgrade implementation"
      },
      "downgradeTo(address,uint256)": {
        "details": "Downgrade SuperToken to ERC20 and transfer immediately",
        "params": {
          "amount": "Number of tokens to be downgraded (in 18 decimals)",
          "to": "The account to receive downgraded tokens"
        }
      },
      "getAccountActiveAgreements(address)": {
        "details": "ISuperfluidToken.getAccountActiveAgreements implementation"
      },
      "getAgreementData(address,bytes32,uint256)": {
        "details": "ISuperfluidToken.getAgreementData implementation"
      },
      "getAgreementStateSlot(address,address,uint256,uint256)": {
        "details": "ISuperfluidToken.getAgreementState implementation"
      },
      "getCodeAddress()": {
        "details": "Get current implementation code address."
      },
      "getHost()": {
        "details": "ISuperfluidToken.getHost implementation"
      },
      "getUnderlyingToken()": {
        "details": "ISuperfluidGovernance.getUnderlyingToken implementation"
      },
      "granularity()": {
        "details": "Returns the smallest part of the token that is not divisible. This         means all token operations (creation, movement and destruction) must have         amounts that are a multiple of this number."
      },
      "increaseAllowance(address,uint256)": {
        "details": "Atomically increases the allowance granted to `spender` by the caller. This is an alternative to {approve} that can be used as a mitigation for problems described in {IERC20-approve}."
      },
      "initialize(address,uint8,string,string)": {
        "details": "Initialize the contract"
      },
      "isAccountCritical(address,uint256)": {
        "details": "A critical account is when availableBalance < 0",
        "params": {
          "account": "The account to check",
          "timestamp": "The time we'd like to check if the account is critical (should use future)"
        },
        "returns": {
          "isCritical": "Whether the account is critical"
        }
      },
      "isAccountCriticalNow(address)": {
        "details": "A critical account is when availableBalance < 0",
        "params": {
          "account": "The account to check"
        },
        "returns": {
          "isCritical": "Whether the account is critical"
        }
      },
      "isAccountSolvent(address,uint256)": {
        "details": "An account is insolvent when the sum of deposits for a token can't cover the negative availableBalance",
        "params": {
          "account": "The account to check",
          "timestamp": "The time we'd like to check if the account is solvent (should use future)"
        },
        "returns": {
          "isSolvent": "True if the account is solvent, false otherwise"
        }
      },
      "isAccountSolventNow(address)": {
        "details": "An account is insolvent when the sum of deposits for a token can't cover the negative availableBalance",
        "params": {
          "account": "The account to check"
        },
        "returns": {
          "isSolvent": "True if the account is solvent, false otherwise"
        }
      },
      "isOperatorFor(address,address)": {
        "details": "Returns true if an account is an operator of `tokenHolder`. Operators can send and burn tokens on behalf of their owners. All accounts are their own operator. See {operatorSend} and {operatorBurn}."
      },
      "makeLiquidationPayoutsV2(bytes32,bytes,address,bool,address,uint256,int256)": {
        "details": "ISuperfluidToken.makeLiquidationPayoutsV2 implementation"
      },
      "name()": {
        "details": "Returns the name of the token."
      },
      "operationApprove(address,address,uint256)": {
        "details": "Perform ERC20 approve by host contract.",
        "params": {
          "account": "The account owner to be approved.",
          "amount": "Number of tokens to be approved.",
          "spender": "The spender of account owner's funds."
        }
      },
      "operationDowngrade(address,uint256)": {
        "details": "Downgrade ERC20 to SuperToken by host contract.",
        "params": {
          "account": "The account to be changed.",
          "amount": "Number of tokens to be downgraded (in 18 decimals)"
        }
      },
      "operationTransferFrom(address,address,address,uint256)": {
        "details": "Perform ERC20 transferFrom by host contract.",
        "params": {
          "account": "The account to spend sender's funds.",
          "amount": "Number of tokens to be transferred.",
          "recipient": "The recipient of the funds.",
          "spender": "The account where the funds is sent from."
        }
      },
      "operationUpgrade(address,uint256)": {
        "details": "Upgrade ERC20 to SuperToken by host contract.",
        "params": {
          "account": "The account to be changed.",
          "amount": "Number of tokens to be upgraded (in 18 decimals)"
        }
      },
      "operatorBurn(address,uint256,bytes,bytes)": {
        "details": "Destroys `amount` tokens from `account`, reducing the total supply. The caller must be an operator of `account`. If a send hook is registered for `account`, the corresponding function will be called with `data` and `operatorData`. See {IERC777Sender}."
      },
      "operatorSend(address,address,uint256,bytes,bytes)": {
        "details": "Moves `amount` tokens from `sender` to `recipient`. The caller must be an operator of `sender`. If send or receive hooks are registered for `sender` and `recipient`, the corresponding functions will be called with `data` and `operatorData`. See {IERC777Sender} and {IERC777Recipient}."
      },
      "proxiableUUID()": {
        "details": "Proxiable UUID marker function, this would help to avoid wrong logic      contract to be used for upgrading. NOTE: The semantics of the UUID deviates from the actual UUPS standard,       where it is equivalent of _IMPLEMENTATION_SLOT."
      },
      "realtimeBalanceOf(address,uint256)": {
        "details": "ISuperfluidToken.realtimeBalanceOf implementation"
      },
      "realtimeBalanceOfNow(address)": {
        "details": "ISuperfluidToken.realtimeBalanceOfNow implementation"
      },
      "revokeOperator(address)": {
        "details": "Revoke an account's operator status for the caller. See {isOperatorFor} and {defaultOperators}."
      },
      "selfApproveFor(address,address,uint256)": {
        "details": "Give `spender`, `amount` allowance to spend the tokens of `account`."
      },
      "selfBurn(address,uint256,bytes)": {
        "details": "Burn existing tokens for the account"
      },
      "selfMint(address,uint256,bytes)": {
        "details": "Mint new tokens for the account"
      },
      "send(address,uint256,bytes)": {
        "details": "Moves `amount` tokens from the caller's account to `recipient`.If send or receive hooks are registered for the caller and `recipient`,      the corresponding functions will be called with `data` and empty      `operatorData`. See {IERC777Sender} and {IERC777Recipient}."
      },
      "settleBalance(address,int256)": {
        "details": "ISuperfluidToken.settleBalance implementation"
      },
      "symbol()": {
        "details": "Returns the symbol of the token, usually a shorter version of the name."
      },
      "terminateAgreement(bytes32,uint256)": {
        "details": "ISuperfluidToken.terminateAgreement implementation"
      },
      "totalSupply()": {
        "details": "See {IERC20-totalSupply}."
      },
      "transfer(address,uint256)": {
        "details": "Moves `amount` tokens from the caller's account to `recipient`.",
        "returns": {
          "_0": "Returns Success a boolean value indicating whether the operation succeeded."
        }
      },
      "transferAll(address)": {
        "details": "Transfer all available balance from `msg.sender` to `recipient`"
      },
      "updateAgreementData(bytes32,bytes32[])": {
        "details": "ISuperfluidToken.updateAgreementData implementation"
      },
      "updateAgreementStateSlot(address,uint256,bytes32[])": {
        "details": "ISuperfluidToken.updateAgreementState implementation"
      },
      "upgrade(uint256)": {
        "details": "ISuperToken.upgrade implementation"
      },
      "upgradeTo(address,uint256,bytes)": {
        "details": "ISuperToken.upgradeTo implementation"
      }
    },
    "stateVariables": {
      "_allowances": {
        "details": "ERC20 Allowances Storage"
      },
      "_name": {
        "details": "TokenInfo Name property"
      },
      "_operators": {
        "details": "ERC777 operators support data"
      },
      "_symbol": {
        "details": "TokenInfo Symbol property"
      },
      "_underlyingDecimals": {
        "details": "Decimals of the underlying token"
      },
      "_underlyingToken": {
        "details": "The underlying ERC20 token"
      }
    },
    "title": "Superfluid's super token implementation",
    "version": 1
  },
  "userdoc": {
    "kind": "user",
    "methods": {
      "isAccountCritical(address,uint256)": {
        "notice": "Check if account is critical"
      },
      "isAccountCriticalNow(address)": {
        "notice": "Check if account is critical now (current host.getNow())"
      },
      "isAccountSolvent(address,uint256)": {
        "notice": "Check if account is solvent"
      },
      "isAccountSolventNow(address)": {
        "notice": "Check if account is solvent now"
      }
    },
    "version": 1
  }
}