{
  "contractName": "SuperTokenPool",
  "abi": [
    {
      "inputs": [
        {
          "internalType": "address",
          "name": "admin_",
          "type": "address"
        },
        {
          "internalType": "contract GeneralDistributionAgreementV1",
          "name": "gda",
          "type": "address"
        },
        {
          "internalType": "contract ISuperfluidToken",
          "name": "superToken",
          "type": "address"
        }
      ],
      "stateMutability": "nonpayable",
      "type": "constructor"
    },
    {
      "inputs": [],
      "name": "SUPER_TOKEN_POOL_NEGATIVE_UNITS_NOT_SUPPORTED",
      "type": "error"
    },
    {
      "inputs": [],
      "name": "SUPER_TOKEN_POOL_NOT_POOL_ADMIN",
      "type": "error"
    },
    {
      "anonymous": false,
      "inputs": [
        {
          "indexed": true,
          "internalType": "address",
          "name": "previousOwner",
          "type": "address"
        },
        {
          "indexed": true,
          "internalType": "address",
          "name": "newOwner",
          "type": "address"
        }
      ],
      "name": "OwnershipTransferred",
      "type": "event"
    },
    {
      "anonymous": false,
      "inputs": [
        {
          "indexed": true,
          "internalType": "contract ISuperfluidToken",
          "name": "token",
          "type": "address"
        },
        {
          "indexed": false,
          "internalType": "int128",
          "name": "totalUnits",
          "type": "int128"
        },
        {
          "indexed": false,
          "internalType": "uint32",
          "name": "wpSettledAt",
          "type": "uint32"
        },
        {
          "indexed": false,
          "internalType": "int256",
          "name": "wpSettledValue",
          "type": "int256"
        },
        {
          "indexed": false,
          "internalType": "int96",
          "name": "wpFlowRate",
          "type": "int96"
        }
      ],
      "name": "PoolIndexUpdated",
      "type": "event"
    },
    {
      "inputs": [],
      "name": "_superToken",
      "outputs": [
        {
          "internalType": "contract ISuperfluidToken",
          "name": "",
          "type": "address"
        }
      ],
      "stateMutability": "view",
      "type": "function"
    },
    {
      "inputs": [],
      "name": "admin",
      "outputs": [
        {
          "internalType": "address",
          "name": "",
          "type": "address"
        }
      ],
      "stateMutability": "view",
      "type": "function"
    },
    {
      "inputs": [],
      "name": "owner",
      "outputs": [
        {
          "internalType": "address",
          "name": "",
          "type": "address"
        }
      ],
      "stateMutability": "view",
      "type": "function"
    },
    {
      "inputs": [],
      "name": "pendingUnits",
      "outputs": [
        {
          "internalType": "Unit",
          "name": "",
          "type": "int128"
        }
      ],
      "stateMutability": "view",
      "type": "function"
    },
    {
      "inputs": [],
      "name": "renounceOwnership",
      "outputs": [],
      "stateMutability": "nonpayable",
      "type": "function"
    },
    {
      "inputs": [
        {
          "internalType": "address",
          "name": "newOwner",
          "type": "address"
        }
      ],
      "name": "transferOwnership",
      "outputs": [],
      "stateMutability": "nonpayable",
      "type": "function"
    },
    {
      "inputs": [],
      "name": "getIndex",
      "outputs": [
        {
          "components": [
            {
              "internalType": "Unit",
              "name": "total_units",
              "type": "int128"
            },
            {
              "components": [
                {
                  "internalType": "Time",
                  "name": "settled_at",
                  "type": "uint32"
                },
                {
                  "internalType": "Value",
                  "name": "settled_value",
                  "type": "int256"
                },
                {
                  "internalType": "FlowRate",
                  "name": "flow_rate",
                  "type": "int128"
                }
              ],
              "internalType": "struct BasicParticle",
              "name": "wrapped_particle",
              "type": "tuple"
            }
          ],
          "internalType": "struct PDPoolIndex",
          "name": "",
          "type": "tuple"
        }
      ],
      "stateMutability": "view",
      "type": "function"
    },
    {
      "inputs": [],
      "name": "getTotalUnits",
      "outputs": [
        {
          "internalType": "int128",
          "name": "",
          "type": "int128"
        }
      ],
      "stateMutability": "view",
      "type": "function"
    },
    {
      "inputs": [
        {
          "internalType": "address",
          "name": "memberAddr",
          "type": "address"
        }
      ],
      "name": "getUnits",
      "outputs": [
        {
          "internalType": "int128",
          "name": "",
          "type": "int128"
        }
      ],
      "stateMutability": "view",
      "type": "function"
    },
    {
      "inputs": [],
      "name": "getDistributionFlowRate",
      "outputs": [
        {
          "internalType": "int96",
          "name": "",
          "type": "int96"
        }
      ],
      "stateMutability": "view",
      "type": "function"
    },
    {
      "inputs": [],
      "name": "getPendingDistributionFlowRate",
      "outputs": [
        {
          "internalType": "int96",
          "name": "",
          "type": "int96"
        }
      ],
      "stateMutability": "view",
      "type": "function"
    },
    {
      "inputs": [
        {
          "internalType": "address",
          "name": "memberAddr",
          "type": "address"
        }
      ],
      "name": "getMemberFlowRate",
      "outputs": [
        {
          "internalType": "int96",
          "name": "",
          "type": "int96"
        }
      ],
      "stateMutability": "view",
      "type": "function"
    },
    {
      "inputs": [],
      "name": "getPendingDistribution",
      "outputs": [
        {
          "internalType": "int256",
          "name": "",
          "type": "int256"
        }
      ],
      "stateMutability": "view",
      "type": "function"
    },
    {
      "inputs": [
        {
          "internalType": "address",
          "name": "memberAddr",
          "type": "address"
        }
      ],
      "name": "getClaimableNow",
      "outputs": [
        {
          "internalType": "int256",
          "name": "claimableBalance",
          "type": "int256"
        },
        {
          "internalType": "uint256",
          "name": "timestamp",
          "type": "uint256"
        }
      ],
      "stateMutability": "view",
      "type": "function"
    },
    {
      "inputs": [
        {
          "internalType": "uint32",
          "name": "time",
          "type": "uint32"
        },
        {
          "internalType": "address",
          "name": "memberAddr",
          "type": "address"
        }
      ],
      "name": "getClaimable",
      "outputs": [
        {
          "internalType": "int256",
          "name": "",
          "type": "int256"
        }
      ],
      "stateMutability": "view",
      "type": "function"
    },
    {
      "inputs": [
        {
          "internalType": "address",
          "name": "memberAddr",
          "type": "address"
        },
        {
          "internalType": "int128",
          "name": "unit",
          "type": "int128"
        }
      ],
      "name": "updateMember",
      "outputs": [
        {
          "internalType": "bool",
          "name": "",
          "type": "bool"
        }
      ],
      "stateMutability": "nonpayable",
      "type": "function"
    },
    {
      "inputs": [
        {
          "internalType": "uint32",
          "name": "time",
          "type": "uint32"
        },
        {
          "internalType": "address",
          "name": "memberAddr",
          "type": "address"
        }
      ],
      "name": "claimAll",
      "outputs": [
        {
          "internalType": "bool",
          "name": "",
          "type": "bool"
        }
      ],
      "stateMutability": "nonpayable",
      "type": "function"
    },
    {
      "inputs": [
        {
          "internalType": "address",
          "name": "memberAddr",
          "type": "address"
        }
      ],
      "name": "claimAll",
      "outputs": [
        {
          "internalType": "bool",
          "name": "",
          "type": "bool"
        }
      ],
      "stateMutability": "nonpayable",
      "type": "function"
    },
    {
      "inputs": [],
      "name": "claimAll",
      "outputs": [
        {
          "internalType": "bool",
          "name": "",
          "type": "bool"
        }
      ],
      "stateMutability": "nonpayable",
      "type": "function"
    },
    {
      "inputs": [
        {
          "components": [
            {
              "internalType": "Unit",
              "name": "total_units",
              "type": "int128"
            },
            {
              "components": [
                {
                  "internalType": "Time",
                  "name": "settled_at",
                  "type": "uint32"
                },
                {
                  "internalType": "Value",
                  "name": "settled_value",
                  "type": "int256"
                },
                {
                  "internalType": "FlowRate",
                  "name": "flow_rate",
                  "type": "int128"
                }
              ],
              "internalType": "struct BasicParticle",
              "name": "wrapped_particle",
              "type": "tuple"
            }
          ],
          "internalType": "struct PDPoolIndex",
          "name": "index",
          "type": "tuple"
        }
      ],
      "name": "operatorSetIndex",
      "outputs": [
        {
          "internalType": "bool",
          "name": "",
          "type": "bool"
        }
      ],
      "stateMutability": "nonpayable",
      "type": "function"
    },
    {
      "inputs": [
        {
          "internalType": "uint32",
          "name": "time",
          "type": "uint32"
        },
        {
          "internalType": "address",
          "name": "memberAddr",
          "type": "address"
        },
        {
          "internalType": "bool",
          "name": "doConnect",
          "type": "bool"
        }
      ],
      "name": "operatorConnectMember",
      "outputs": [
        {
          "internalType": "bool",
          "name": "",
          "type": "bool"
        }
      ],
      "stateMutability": "nonpayable",
      "type": "function"
    }
  ],
  "bytecode": "0x60c06040523480156200001157600080fd5b5060405162001a5438038062001a548339810160408190526200003491620000d4565b6200003f336200006b565b600580546001600160a01b0319166001600160a01b039485161790559082166080521660a05262000128565b600080546001600160a01b038381166001600160a01b0319831681178455604051919092169283917f8be0079c531659141344cd1fd0a4f28419497f9722a3daafe3b4186f6b6457e09190a35050565b6001600160a01b0381168114620000d157600080fd5b50565b600080600060608486031215620000ea57600080fd5b8351620000f781620000bb565b60208501519093506200010a81620000bb565b60408501519092506200011d81620000bb565b809150509250925092565b60805160a0516118ea6200016a600039600081816102c4015281816105360152610ce5015260008181610509015281816108cf0152610cb801526118ea6000f3fe608060405234801561001057600080fd5b50600436106101375760003560e01c80637e275849116100b8578063bf734e541161007c578063bf734e54146102ac578063c8b53aef146102bf578063d1058e59146102e6578063ed2e9e68146102ee578063f2fde38b14610301578063f851a4401461031457600080fd5b80637e2758491461024c57806381045ead1461025f5780638da5cb5b14610274578063a754a70214610299578063b68ef98a146102a457600080fd5b8063539e8c1c116100ff578063539e8c1c146101fc5780636c1d05821461020f578063712c1f2614610222578063715018a61461022f57806377329f351461023957600080fd5b80630134aeba1461013c5780630fefbc09146101575780631e08b63a1461019657806321dd5777146101b157806342d1cdbc146101d9575b600080fd5b610144610327565b6040519081526020015b60405180910390f35b610183610165366004611423565b6001600160a01b0316600090815260066020526040902054600f0b90565b604051600f9190910b815260200161014e565b61019e61037e565b604051600b9190910b815260200161014e565b6101c46101bf366004611423565b61039d565b6040805192835260208301919091520161014e565b6101ec6101e7366004611450565b6103b3565b604051901515815260200161014e565b61019e61020a366004611423565b6105d9565b61014461021d366004611450565b61061c565b60085461018390600f0b81565b610237610702565b005b6101ec610247366004611423565b610716565b6101ec61025a36600461148a565b610723565b6102676107e8565b60405161014e91906114d3565b6000546001600160a01b03165b6040516001600160a01b03909116815260200161014e565b600154600f0b610183565b61019e610839565b6101ec6102ba366004611524565b610853565b6102817f000000000000000000000000000000000000000000000000000000000000000081565b6101ec610d7a565b6101ec6102fc36600461155b565b610d87565b61023761030f366004611423565b610daa565b600554610281906001600160a01b031681565b6008546040805160608101825260025463ffffffff90811682526003546020830152600454600f90810b9383019390935260009342936103789391900b9161037291908590610e2816565b90610e56565b91505090565b60015460045460009161039891600f90810b91900b610e66565b905090565b6000806103aa428461061c565b93429350915050565b6000806103c0848461061c565b604080516002808252606082018352929350839260009260208301908036833701905050905030816000815181106103fa576103fa611573565b60200260200101906001600160a01b031690816001600160a01b031681525050848160018151811061042e5761042e611573565b6001600160a01b03929092166020928302919091019091015260408051600280825260608201909252600091816020015b604080516060810182526000808252602080830182905292820152825260001990920191018161045f57505060408051606081018252600080825260208201819052918101919091529091506104b6818086610e72565b836000815181106104c9576104c9611573565b60200260200101846001815181106104e3576104e3611573565b60209081029190910101919091525260405163b0bd081f60e01b81526001600160a01b037f0000000000000000000000000000000000000000000000000000000000000000169063b0bd081f90610562907f00000000000000000000000000000000000000000000000000000000000000009087908790600401611589565b6020604051808303816000875af1158015610581573d6000803e3d6000fd5b505050506040513d601f19601f820116820180604052508101906105a59190611641565b6105b1576105b161165e565b5050506001600160a01b03841660009081526007602052604090205550600190505b92915050565b6001600160a01b038116600090815260066020526040812054600f0b8082036106055750600092915050565b60045461061590600f0b82610e66565b9392505050565b6040805160808101825260018054600f90810b8385019081528451606081810187526002805463ffffffff90811684526003805460208681019190915260048054890b878d0152858b01969096529589526001600160a01b038b166000908152600687528a81208b518087018d5281548a0b8152998101548a8901528b519586018c5293840154831685529083015484870152919093015490940b81880152958401959095528301919091529184916106fa916106dc91908490610ed016565b6001600160a01b038516600090815260076020526040902054610f27565b949350505050565b61070a610f33565b6107146000610f8d565b565b60004261061581846103b3565b600061072d610f33565b8115610785576008546001600160a01b03841660009081526006602052604090205461076091600f90810b91900b610fdd565b600880546001600160801b0319166001600160801b03929092169190911790556107d3565b6008546001600160a01b0384166000908152600660205260409020546107b291600f90810b91900b610fe9565b600880546001600160801b0319166001600160801b03929092169190911790555b6107dd84846103b3565b506001949350505050565b6107f061137c565b50604080518082018252600154600f90810b8252825160608101845260025463ffffffff16815260035460208281019190915260045490920b9381019390935281019190915290565b60085460045460009161039891600f90810b91900b610e66565b60008082600f0b12156108795760405163d568f5c560e01b815260040160405180910390fd5b6005546001600160a01b031633146108a45760405163e448e00d60e01b815260040160405180910390fd5b6040516331e0bae760e21b81523060048201526001600160a01b0384811660248301524291829185917f00000000000000000000000000000000000000000000000000000000000000009091169063c782eb9c90604401602060405180830381865afa158015610918573d6000803e3d6000fd5b505050506040513d601f19601f8201168201806040525081019061093c9190611641565b610997576008546001600160a01b0387166000908152600660205260409020546109769161097091600f91820b910b610fdd565b82610fe9565b600880546001600160801b0319166001600160801b03929092169190911790555b6040805160608101825260008082526020820181905291810191909152610b20818385604051806040016040528060016040518060400160405290816000820160009054906101000a9004600f0b600f0b600f0b8152602001600182016040518060600160405290816000820160009054906101000a900463ffffffff1663ffffffff1663ffffffff168152602001600182015481526020016002820160009054906101000a9004600f0b600f0b600f0b81525050815250508152602001600660008e6001600160a01b03166001600160a01b031681526020019081526020016000206040518060600160405290816000820160009054906101000a9004600f0b600f0b600f0b815260200160018201548152602001600282016040518060600160405290816000820160009054906101000a900463ffffffff1663ffffffff1663ffffffff168152602001600182015481526020016002820160009054906101000a9004600f0b600f0b600f0b8152505081525050815250610ff5909392919063ffffffff16565b6001600160a01b038a166000908152600660209081526040808320855181546001600160801b039182166001600160801b0319918216178355878501516001808501919091559784015180516002808601805463ffffffff93841663ffffffff19918216179091558389015160038089019190915593880151600497880180549188169187169190911790558c518c54908716908616178c559b88015180518254931692909c16919091179055898601519055978301518254911697169690961790955584518481528086019095529194509291908281019080368337505060055482519293506001600160a01b031691839150600090610c2357610c23611573565b6001600160a01b039290921660209283029190910190910152604080516001808252818301909252600091816020015b6040805160608101825260008082526020808301829052928201528252600019909201910181610c535790505090508281600081518110610c9657610c96611573565b602090810291909101015260405163b0bd081f60e01b81526001600160a01b037f0000000000000000000000000000000000000000000000000000000000000000169063b0bd081f90610d11907f00000000000000000000000000000000000000000000000000000000000000009086908690600401611589565b6020604051808303816000875af1158015610d30573d6000803e3d6000fd5b505050506040513d601f19601f82011682018060405250810190610d549190611641565b610d6057610d6061165e565b5050610d6c84886103b3565b506001979650505050505050565b60004261037881336103b3565b6000610d91610f33565b816001610d9e8282611674565b5060019150505b919050565b610db2610f33565b6001600160a01b038116610e1c5760405162461bcd60e51b815260206004820152602660248201527f4f776e61626c653a206e6577206f776e657220697320746865207a65726f206160448201526564647265737360d01b60648201526084015b60405180910390fd5b610e2581610f8d565b50565b6000610615610e4c610e3e848660000151611113565b6040860151600f0b9061111f565b8460200151611135565b6000610615600f83900b84611713565b60006106158284611743565b6040805160608082018352600080835260208084018290528385018290528451928301855281835282018190529281019290925290610eba610eb384611141565b869061114c565b9150610ec6848461114c565b9050935093915050565b6000610615836020015160200151610f22856020015160000151610372610f0887896000015160200151610e2890919063ffffffff16565b6020890151604001518051610f1d9190610e28565b610f27565b611135565b60006106158284611763565b6000546001600160a01b031633146107145760405162461bcd60e51b815260206004820181905260248201527f4f776e61626c653a2063616c6c6572206973206e6f7420746865206f776e65726044820152606401610e13565b600080546001600160a01b038381166001600160a01b0319831681178455604051919092169283917f8be0079c531659141344cd1fd0a4f28419497f9722a3daafe3b4186f6b6457e09190a35050565b60006106158284611783565b600061061582846117b0565b610ffd61137c565b6110056113b9565b6040805160608101825260008082526020820181905291810191909152865151600061103f6110348389610fe9565b60208b015151610fdd565b9050600061104d8a8861118d565b805160200151604001519091506000600f84900b1561107f57611075600f83900b86866111dd565b9092509050611094565b61108d600f83900b86610e66565b9050600091505b8251602001516110a49083611207565b8351602001528251600f85900b905260408b01516110d6906110c69083610fe9565b6110d08d8c61123e565b90611207565b8351602080860151600f8e900b8152865190910151919a5098509096506110fc90611284565b876040018190525050505050509450945094915050565b600061061582846117dd565b600061061563ffffffff8316600f85900b611713565b600061061582846117fa565b60006105d382611822565b604080516060810182526000808252602082018190529181019190915261117283611284565b9050611182816020015183611135565b602082015292915050565b6111956113ec565b82516111a190836112bf565b815260208301516111b1906112e2565b60208201526111c08383610ed0565b602080830180518201929092528251015190516040015292915050565b6000806111fb836111f2600f88900b87610e66565b600f0b90611313565b91509150935093915050565b604080516060810182526000808252602082018190529181019190915261122d83611284565b600f9290920b604083015250919050565b604080516060810182526000808252602082018190529181019190915261126483611284565b90506112708383610e28565b602082015263ffffffff9091168152919050565b6040805160608101825260008082526020808301828152838501928352855163ffffffff1684529085015190529290910151600f0b90915290565b6112c761137c565b6112d08361133d565b6020810151909150611182908361123e565b6112ea6113b9565b8151600f0b815260208083015190820152604082015161130990611284565b6040820152919050565b600080611324600f85900b84611364565b9150611334600f85900b84611370565b90509250929050565b61134561137c565b8151600f0b8152602082015161135a90611284565b6020820152919050565b60006106158284611854565b60006106158284611892565b60405180604001604052806000600f0b81526020016113b4604080516060810182526000808252602082018190529181019190915290565b905290565b60408051606080820183526000808352602080840182905284519283018552818352820181905281840152909182015290565b60405180604001604052806113ff61137c565b81526020016113b46113b9565b80356001600160a01b0381168114610da557600080fd5b60006020828403121561143557600080fd5b6106158261140c565b63ffffffff81168114610e2557600080fd5b6000806040838503121561146357600080fd5b823561146e8161143e565b91506113346020840161140c565b8015158114610e2557600080fd5b60008060006060848603121561149f57600080fd5b83356114aa8161143e565b92506114b86020850161140c565b915060408401356114c88161147c565b809150509250925092565b8151600f0b8152602080830151608083019161150e90840182805163ffffffff16825260208082015190830152604090810151600f0b910152565b5092915050565b80600f0b8114610e2557600080fd5b6000806040838503121561153757600080fd5b6115408361140c565b9150602083013561155081611515565b809150509250929050565b60006080828403121561156d57600080fd5b50919050565b634e487b7160e01b600052603260045260246000fd5b6001600160a01b0384811682526060602080840182905285518483018190526000938783019290916080870190865b818110156115d65785518516835294830194918301916001016115b8565b5050868103604088015287518082529082019350915080870160005b8381101561163257611622858351805163ffffffff16825260208082015190830152604090810151600f0b910152565b93850193908201906001016115f2565b50929998505050505050505050565b60006020828403121561165357600080fd5b81516106158161147c565b634e487b7160e01b600052600160045260246000fd5b813561167f81611515565b81546001600160801b0319166001600160801b038216178255506001810160208301356116ab8161143e565b815463ffffffff191663ffffffff919091161790556040820135600282015560608201356116d881611515565b6003820180546001600160801b0383166001600160801b031991909116179055505050565b634e487b7160e01b600052601160045260246000fd5b80820260008212600160ff1b8414161561172f5761172f6116fd565b81810583148215176105d3576105d36116fd565b600082600f0b82600f0b0280600f0b915080821461150e5761150e6116fd565b818103600083128015838313168383128216171561150e5761150e6116fd565b600f82810b9082900b0360016001607f1b0319811260016001607f1b03821317156105d3576105d36116fd565b600f81810b9083900b0160016001607f1b03811360016001607f1b0319821217156105d3576105d36116fd565b63ffffffff82811682821603908082111561150e5761150e6116fd565b808201828112600083128015821682158216171561181a5761181a6116fd565b505092915050565b6000600160ff1b8201611837576118376116fd565b5060000390565b634e487b7160e01b600052601260045260246000fd5b600081600f0b83600f0b8061186b5761186b61183e565b60016001607f1b0319821460001982141615611889576118896116fd565b90059392505050565b600082600f0b806118a5576118a561183e565b8083600f0b079150509291505056fea2646970667358221220992e8363fde18fc434e911a8207b2305335b5812d7d931354291018df77e3fcb64736f6c63430008130033",
  "immutableReferences": {
    "28936": [
      {
        "length": 32,
        "start": 1289
      },
      {
        "length": 32,
        "start": 2255
      },
      {
        "length": 32,
        "start": 3256
      }
    ],
    "28939": [
      {
        "length": 32,
        "start": 708
      },
      {
        "length": 32,
        "start": 1334
      },
      {
        "length": 32,
        "start": 3301
      }
    ]
  },
  "source": "// SPDX-License-Identifier: AGPLv3\npragma solidity 0.8.19;\n\nimport { Ownable } from \"@openzeppelin/contracts/access/Ownable.sol\";\nimport \"@superfluid-finance/solidity-semantic-money/src/SemanticMoney.sol\";\nimport {\n    ISuperfluidToken\n} from \"../interfaces/superfluid/ISuperfluidToken.sol\";\nimport { ISuperToken } from \"../interfaces/superfluid/ISuperToken.sol\";\nimport { ISuperTokenPool } from \"../interfaces/superfluid/ISuperTokenPool.sol\";\nimport {\n    GeneralDistributionAgreementV1\n} from \"../agreements/GeneralDistributionAgreementV1.sol\";\n\n/**\n * @title SuperTokenPool\n * @author Superfluid\n * @notice A SuperTokenPool which can be used to distribute any SuperToken.\n */\ncontract SuperTokenPool is Ownable, ISuperTokenPool {\n    using SemanticMoney for BasicParticle;\n\n    GeneralDistributionAgreementV1 internal immutable _gda;\n    ISuperfluidToken public immutable _superToken;\n    PDPoolIndex internal _index;\n    address public admin;\n    mapping(address member => PDPoolMember member_data) internal _members;\n    mapping(address member => Value claimed_value) internal _claimedValues;\n    Unit public pendingUnits;\n\n    constructor(\n        address admin_,\n        GeneralDistributionAgreementV1 gda,\n        ISuperfluidToken superToken\n    ) Ownable() {\n        admin = admin_;\n        _gda = gda;\n        _superToken = superToken;\n    }\n\n    function getIndex() external view returns (PDPoolIndex memory) {\n        return _index;\n    }\n\n    function getTotalUnits() external view override returns (int128) {\n        return Unit.unwrap(_index.total_units);\n    }\n\n    function getUnits(\n        address memberAddr\n    ) external view override returns (int128) {\n        return Unit.unwrap(_members[memberAddr].owned_units);\n    }\n\n    function getDistributionFlowRate() external view override returns (int96) {\n        // @note downcasting from int128 -> int96\n        return\n            int96(\n                FlowRate.unwrap(\n                    _index.wrapped_particle.flow_rate.mul(_index.total_units)\n                )\n            );\n    }\n\n    function getPendingDistributionFlowRate()\n        external\n        view\n        override\n        returns (int96)\n    {\n        return int96(FlowRate.unwrap(_index.wrapped_particle.flow_rate.mul(pendingUnits)));\n    }\n\n    function getMemberFlowRate(\n        address memberAddr\n    ) external view override returns (int96) {\n        Unit u = _members[memberAddr].owned_units;\n        if (Unit.unwrap(u) == 0) return 0;\n        else return int96(FlowRate.unwrap(_index.wrapped_particle.flow_rate.mul(u)));\n    }\n\n    function getPendingDistribution() external view returns (int256) {\n        Time t = Time.wrap(uint32(block.timestamp));\n        return Value.unwrap(_index.wrapped_particle.rtb(t).mul(pendingUnits));\n    }\n\n    function getClaimableNow(address memberAddr) override external view returns (int256 claimableBalance, uint256 timestamp) {\n        return (getClaimable(uint32(block.timestamp), memberAddr), block.timestamp);\n    }\n\n    function getClaimable(\n        uint32 time,\n        address memberAddr\n    ) public view override returns (int256) {\n        Time t = Time.wrap(time);\n        return\n            Value.unwrap(\n                PDPoolMemberMU(_index, _members[memberAddr]).rtb(t) -\n                    _claimedValues[memberAddr]\n            );\n    }\n\n    function updateMember(\n        address memberAddr,\n        int128 unit\n    ) external returns (bool) {\n        if (unit < 0) revert SUPER_TOKEN_POOL_NEGATIVE_UNITS_NOT_SUPPORTED();\n        if (admin != msg.sender) revert SUPER_TOKEN_POOL_NOT_POOL_ADMIN();\n\n        uint32 time = uint32(block.timestamp);\n        Time t = Time.wrap(time);\n        Unit wrappedUnit = Unit.wrap(unit);\n\n        // update pool's pending units\n        if (!_gda.isMemberConnected(address(this), memberAddr)) {\n            pendingUnits = pendingUnits - _members[memberAddr].owned_units + wrappedUnit;\n        }\n\n        // update pool member's units\n        BasicParticle memory p;\n        (_index, _members[memberAddr], p) = PDPoolMemberMU(_index, _members[memberAddr])\n            .pool_member_update(p, wrappedUnit, t);\n        {\n            address[] memory addresses = new address[](1);\n            addresses[0] = admin;\n            BasicParticle[] memory ps = new BasicParticle[](1);\n            ps[0] = p;\n            assert(_gda.absorbParticlesFromPool(_superToken, addresses, ps));\n        }\n\n        // additional side effects of triggering claimAll\n        claimAll(time, memberAddr);\n\n        return true;\n    }\n\n    function claimAll() external returns (bool) {\n        uint32 time = uint32(block.timestamp);\n        return claimAll(time, msg.sender);\n    }\n\n    function claimAll(address memberAddr) external returns (bool) {\n        uint32 time = uint32(block.timestamp);\n        return claimAll(time, memberAddr);\n    }\n\n    function claimAll(\n        uint32 time,\n        address memberAddr\n    ) public override returns (bool) {\n        int256 claimable = getClaimable(time, memberAddr);\n        Value wrappedClaimable = Value.wrap(claimable);\n        {\n            address[] memory addresses = new address[](2);\n            addresses[0] = address(this);\n            addresses[1] = memberAddr;\n            BasicParticle[] memory ps = new BasicParticle[](2);\n            BasicParticle memory mempty;\n            (ps[0], ps[1]) = mempty.shift2(mempty, wrappedClaimable);\n            assert(_gda.absorbParticlesFromPool(_superToken, addresses, ps));\n        }\n        _claimedValues[memberAddr] = wrappedClaimable;\n        return true;\n    }\n\n    function operatorSetIndex(\n        PDPoolIndex calldata index\n    ) external onlyOwner returns (bool) {\n        _index = index;\n        return true;\n    }\n\n    // WARNING for operators: it is undefined behavior if member is already connected or disconnected\n    function operatorConnectMember(\n        uint32 time,\n        address memberAddr,\n        bool doConnect\n    ) external onlyOwner returns (bool) {\n        if (doConnect) {\n            pendingUnits = pendingUnits - _members[memberAddr].owned_units;\n        } else {\n            pendingUnits = pendingUnits + _members[memberAddr].owned_units;\n        }\n        // trigger side effects of triggering claimAll\n        claimAll(time, memberAddr);\n        return true;\n    }\n}\n",
  "sourcePath": "/Users/0xdavinchee/Documents/dev/superfluid/protocol-monorepo/packages/ethereum-contracts/contracts/superfluid/SuperTokenPool.sol",
  "compiler": {
    "name": "solc",
    "version": "0.8.19+commit.7dd6d404.Emscripten.clang"
  },
  "schemaVersion": "3.4.13",
  "updatedAt": "2023-03-30T14:42:14.678Z",
  "devdoc": {
    "author": "Superfluid",
    "kind": "dev",
    "methods": {
      "owner()": {
        "details": "Returns the address of the current owner."
      },
      "renounceOwnership()": {
        "details": "Leaves the contract without owner. It will not be possible to call `onlyOwner` functions anymore. Can only be called by the current owner. NOTE: Renouncing ownership will leave the contract without an owner, thereby removing any functionality that is only available to the owner."
      },
      "transferOwnership(address)": {
        "details": "Transfers ownership of the contract to a new account (`newOwner`). Can only be called by the current owner."
      }
    },
    "title": "SuperTokenPool",
    "version": 1
  },
  "userdoc": {
    "kind": "user",
    "methods": {},
    "notice": "A SuperTokenPool which can be used to distribute any SuperToken.",
    "version": 1
  }
}